{
  "contractName": "Equipments",
  "abi": [
    {
      "anonymous": false,
      "inputs": [
        {
          "indexed": false,
          "internalType": "uint256",
          "name": "equipmentId",
          "type": "uint256"
        },
        {
          "indexed": false,
          "internalType": "string",
          "name": "equipmentName",
          "type": "string"
        },
        {
          "indexed": false,
          "internalType": "address",
          "name": "userAddress",
          "type": "address"
        },
        {
          "indexed": false,
          "internalType": "string",
          "name": "state",
          "type": "string"
        },
        {
          "indexed": false,
          "internalType": "uint256",
          "name": "productId",
          "type": "uint256"
        }
      ],
      "name": "EquipmentAdded",
      "type": "event"
    },
    {
      "inputs": [],
      "name": "equipmentCount",
      "outputs": [
        {
          "internalType": "uint256",
          "name": "",
          "type": "uint256"
        }
      ],
      "stateMutability": "view",
      "type": "function",
      "constant": true
    },
    {
      "inputs": [
        {
          "internalType": "uint256",
          "name": "",
          "type": "uint256"
        }
      ],
      "name": "equipments",
      "outputs": [
        {
          "internalType": "uint256",
          "name": "equipmentId",
          "type": "uint256"
        },
        {
          "internalType": "string",
          "name": "equipmentName",
          "type": "string"
        },
        {
          "internalType": "address",
          "name": "userAddress",
          "type": "address"
        },
        {
          "internalType": "string",
          "name": "state",
          "type": "string"
        },
        {
          "internalType": "uint256",
          "name": "productId",
          "type": "uint256"
        }
      ],
      "stateMutability": "view",
      "type": "function",
      "constant": true
    },
    {
      "inputs": [
        {
          "internalType": "string",
          "name": "_equipmentName",
          "type": "string"
        },
        {
          "internalType": "uint256",
          "name": "_productId",
          "type": "uint256"
        },
        {
          "internalType": "address",
          "name": "_userAddress",
          "type": "address"
        }
      ],
      "name": "addEquipment",
      "outputs": [],
      "stateMutability": "nonpayable",
      "type": "function"
    },
    {
      "inputs": [
        {
          "internalType": "uint256",
          "name": "_equipmentId",
          "type": "uint256"
        }
      ],
      "name": "equipmentExists",
      "outputs": [
        {
          "internalType": "bool",
          "name": "",
          "type": "bool"
        }
      ],
      "stateMutability": "view",
      "type": "function",
      "constant": true
    },
    {
      "inputs": [],
      "name": "getAllEquipments",
      "outputs": [
        {
          "components": [
            {
              "internalType": "uint256",
              "name": "equipmentId",
              "type": "uint256"
            },
            {
              "internalType": "string",
              "name": "equipmentName",
              "type": "string"
            },
            {
              "internalType": "address",
              "name": "userAddress",
              "type": "address"
            },
            {
              "internalType": "string",
              "name": "state",
              "type": "string"
            },
            {
              "internalType": "uint256",
              "name": "productId",
              "type": "uint256"
            }
          ],
          "internalType": "struct Equipments.Equipment[]",
          "name": "",
          "type": "tuple[]"
        }
      ],
      "stateMutability": "view",
      "type": "function",
      "constant": true
    },
    {
      "inputs": [
        {
          "internalType": "uint256",
          "name": "_equipmentId",
          "type": "uint256"
        }
      ],
      "name": "getEquipmentById",
      "outputs": [
        {
          "components": [
            {
              "internalType": "uint256",
              "name": "equipmentId",
              "type": "uint256"
            },
            {
              "internalType": "string",
              "name": "equipmentName",
              "type": "string"
            },
            {
              "internalType": "address",
              "name": "userAddress",
              "type": "address"
            },
            {
              "internalType": "string",
              "name": "state",
              "type": "string"
            },
            {
              "internalType": "uint256",
              "name": "productId",
              "type": "uint256"
            }
          ],
          "internalType": "struct Equipments.Equipment",
          "name": "",
          "type": "tuple"
        }
      ],
      "stateMutability": "view",
      "type": "function",
      "constant": true
    }
  ],
  "bytecode": "0x608060405234801561000f575f80fd5b5061130d8061001d5f395ff3fe608060405234801561000f575f80fd5b5060043610610060575f3560e01c806328512d2b146100645780632d14394b146100825780634ca608791461009e57806357a286e5146100ce578063a6efd620146100fe578063d268582514610132575b5f80fd5b61006c610150565b60405161007991906108a2565b60405180910390f35b61009c60048036038101906100979190610a8c565b610156565b005b6100b860048036038101906100b39190610af8565b6102be565b6040516100c59190610b3d565b60405180910390f35b6100e860048036038101906100e39190610af8565b6102d7565b6040516100f59190610c68565b60405180910390f35b61011860048036038101906101139190610af8565b61049a565b604051610129959493929190610cdf565b60405180910390f35b61013a6105f6565b6040516101479190610e73565b60405180910390f35b60015481565b60015f81548092919061016890610ec0565b91905055506040518060a0016040528060015481526020018481526020018273ffffffffffffffffffffffffffffffffffffffff1681526020016040518060400160405280600781526020017f53746f70706564000000000000000000000000000000000000000000000000008152508152602001838152505f8060015481526020019081526020015f205f820151815f015560208201518160010190816102109190611101565b506040820151816002015f6101000a81548173ffffffffffffffffffffffffffffffffffffffff021916908373ffffffffffffffffffffffffffffffffffffffff160217905550606082015181600301908161026c9190611101565b50608082015181600401559050507f9cf4a1caaa8beb84dc25ce51ab2ef2848f1ed2fda2740af7820c20694e718bc16001548483856040516102b1949392919061121a565b60405180910390a1505050565b5f80821180156102d057506001548211155b9050919050565b6102df610848565b5f805f6001856102ef9190611277565b81526020019081526020015f206040518060a00160405290815f820154815260200160018201805461032090610f34565b80601f016020809104026020016040519081016040528092919081815260200182805461034c90610f34565b80156103975780601f1061036e57610100808354040283529160200191610397565b820191905f5260205f20905b81548152906001019060200180831161037a57829003601f168201915b50505050508152602001600282015f9054906101000a900473ffffffffffffffffffffffffffffffffffffffff1673ffffffffffffffffffffffffffffffffffffffff1673ffffffffffffffffffffffffffffffffffffffff16815260200160038201805461040590610f34565b80601f016020809104026020016040519081016040528092919081815260200182805461043190610f34565b801561047c5780601f106104535761010080835404028352916020019161047c565b820191905f5260205f20905b81548152906001019060200180831161045f57829003601f168201915b50505050508152602001600482015481525050905080915050919050565b5f602052805f5260405f205f91509050805f0154908060010180546104be90610f34565b80601f01602080910402602001604051908101604052809291908181526020018280546104ea90610f34565b80156105355780601f1061050c57610100808354040283529160200191610535565b820191905f5260205f20905b81548152906001019060200180831161051857829003601f168201915b505050505090806002015f9054906101000a900473ffffffffffffffffffffffffffffffffffffffff169080600301805461056f90610f34565b80601f016020809104026020016040519081016040528092919081815260200182805461059b90610f34565b80156105e65780601f106105bd576101008083540402835291602001916105e6565b820191905f5260205f20905b8154815290600101906020018083116105c957829003601f168201915b5050505050908060040154905085565b60605f60015467ffffffffffffffff811115610615576106146108e4565b5b60405190808252806020026020018201604052801561064e57816020015b61063b610848565b8152602001906001900390816106335790505b5090505f600190505b6001548111610840575f808281526020019081526020015f206040518060a00160405290815f820154815260200160018201805461069490610f34565b80601f01602080910402602001604051908101604052809291908181526020018280546106c090610f34565b801561070b5780601f106106e25761010080835404028352916020019161070b565b820191905f5260205f20905b8154815290600101906020018083116106ee57829003601f168201915b50505050508152602001600282015f9054906101000a900473ffffffffffffffffffffffffffffffffffffffff1673ffffffffffffffffffffffffffffffffffffffff1673ffffffffffffffffffffffffffffffffffffffff16815260200160038201805461077990610f34565b80601f01602080910402602001604051908101604052809291908181526020018280546107a590610f34565b80156107f05780601f106107c7576101008083540402835291602001916107f0565b820191905f5260205f20905b8154815290600101906020018083116107d357829003601f168201915b50505050508152602001600482015481525050826001836108119190611277565b81518110610822576108216112aa565b5b6020026020010181905250808061083890610ec0565b915050610657565b508091505090565b6040518060a001604052805f8152602001606081526020015f73ffffffffffffffffffffffffffffffffffffffff168152602001606081526020015f81525090565b5f819050919050565b61089c8161088a565b82525050565b5f6020820190506108b55f830184610893565b92915050565b5f604051905090565b5f80fd5b5f80fd5b5f80fd5b5f80fd5b5f601f19601f8301169050919050565b7f4e487b71000000000000000000000000000000000000000000000000000000005f52604160045260245ffd5b61091a826108d4565b810181811067ffffffffffffffff82111715610939576109386108e4565b5b80604052505050565b5f61094b6108bb565b90506109578282610911565b919050565b5f67ffffffffffffffff821115610976576109756108e4565b5b61097f826108d4565b9050602081019050919050565b828183375f83830152505050565b5f6109ac6109a78461095c565b610942565b9050828152602081018484840111156109c8576109c76108d0565b5b6109d384828561098c565b509392505050565b5f82601f8301126109ef576109ee6108cc565b5b81356109ff84826020860161099a565b91505092915050565b610a118161088a565b8114610a1b575f80fd5b50565b5f81359050610a2c81610a08565b92915050565b5f73ffffffffffffffffffffffffffffffffffffffff82169050919050565b5f610a5b82610a32565b9050919050565b610a6b81610a51565b8114610a75575f80fd5b50565b5f81359050610a8681610a62565b92915050565b5f805f60608486031215610aa357610aa26108c4565b5b5f84013567ffffffffffffffff811115610ac057610abf6108c8565b5b610acc868287016109db565b9350506020610add86828701610a1e565b9250506040610aee86828701610a78565b9150509250925092565b5f60208284031215610b0d57610b0c6108c4565b5b5f610b1a84828501610a1e565b91505092915050565b5f8115159050919050565b610b3781610b23565b82525050565b5f602082019050610b505f830184610b2e565b92915050565b610b5f8161088a565b82525050565b5f81519050919050565b5f82825260208201905092915050565b5f5b83811015610b9c578082015181840152602081019050610b81565b5f8484015250505050565b5f610bb182610b65565b610bbb8185610b6f565b9350610bcb818560208601610b7f565b610bd4816108d4565b840191505092915050565b610be881610a51565b82525050565b5f60a083015f830151610c035f860182610b56565b5060208301518482036020860152610c1b8282610ba7565b9150506040830151610c306040860182610bdf565b5060608301518482036060860152610c488282610ba7565b9150506080830151610c5d6080860182610b56565b508091505092915050565b5f6020820190508181035f830152610c808184610bee565b905092915050565b5f82825260208201905092915050565b5f610ca282610b65565b610cac8185610c88565b9350610cbc818560208601610b7f565b610cc5816108d4565b840191505092915050565b610cd981610a51565b82525050565b5f60a082019050610cf25f830188610893565b8181036020830152610d048187610c98565b9050610d136040830186610cd0565b8181036060830152610d258185610c98565b9050610d346080830184610893565b9695505050505050565b5f81519050919050565b5f82825260208201905092915050565b5f819050602082019050919050565b5f60a083015f830151610d7c5f860182610b56565b5060208301518482036020860152610d948282610ba7565b9150506040830151610da96040860182610bdf565b5060608301518482036060860152610dc18282610ba7565b9150506080830151610dd66080860182610b56565b508091505092915050565b5f610dec8383610d67565b905092915050565b5f602082019050919050565b5f610e0a82610d3e565b610e148185610d48565b935083602082028501610e2685610d58565b805f5b85811015610e615784840389528151610e428582610de1565b9450610e4d83610df4565b925060208a01995050600181019050610e29565b50829750879550505050505092915050565b5f6020820190508181035f830152610e8b8184610e00565b905092915050565b7f4e487b71000000000000000000000000000000000000000000000000000000005f52601160045260245ffd5b5f610eca8261088a565b91507fffffffffffffffffffffffffffffffffffffffffffffffffffffffffffffffff8203610efc57610efb610e93565b5b600182019050919050565b7f4e487b71000000000000000000000000000000000000000000000000000000005f52602260045260245ffd5b5f6002820490506001821680610f4b57607f821691505b602082108103610f5e57610f5d610f07565b5b50919050565b5f819050815f5260205f209050919050565b5f6020601f8301049050919050565b5f82821b905092915050565b5f60088302610fc07fffffffffffffffffffffffffffffffffffffffffffffffffffffffffffffffff82610f85565b610fca8683610f85565b95508019841693508086168417925050509392505050565b5f819050919050565b5f611005611000610ffb8461088a565b610fe2565b61088a565b9050919050565b5f819050919050565b61101e83610feb565b61103261102a8261100c565b848454610f91565b825550505050565b5f90565b61104661103a565b611051818484611015565b505050565b5b81811015611074576110695f8261103e565b600181019050611057565b5050565b601f8211156110b95761108a81610f64565b61109384610f76565b810160208510156110a2578190505b6110b66110ae85610f76565b830182611056565b50505b505050565b5f82821c905092915050565b5f6110d95f19846008026110be565b1980831691505092915050565b5f6110f183836110ca565b9150826002028217905092915050565b61110a82610b65565b67ffffffffffffffff811115611123576111226108e4565b5b61112d8254610f34565b611138828285611078565b5f60209050601f831160018114611169575f8415611157578287015190505b61116185826110e6565b8655506111c8565b601f19841661117786610f64565b5f5b8281101561119e57848901518255600182019150602085019450602081019050611179565b868310156111bb57848901516111b7601f8916826110ca565b8355505b6001600288020188555050505b505050505050565b7f53746f70706564000000000000000000000000000000000000000000000000005f82015250565b5f611204600783610c88565b915061120f826111d0565b602082019050919050565b5f60a08201905061122d5f830187610893565b818103602083015261123f8186610c98565b905061124e6040830185610cd0565b818103606083015261125f816111f8565b905061126e6080830184610893565b95945050505050565b5f6112818261088a565b915061128c8361088a565b92508282039050818111156112a4576112a3610e93565b5b92915050565b7f4e487b71000000000000000000000000000000000000000000000000000000005f52603260045260245ffdfea2646970667358221220e70c50bf1911756302b002cf38e514823dec40419f6846a93745b9373a92872d64736f6c63430008150033",
  "immutableReferences": {},
  "source": "// SPDX-License-Identifier: MIT\r\npragma solidity ^0.8.0;\r\n\r\ncontract Equipments {\r\n    struct Equipment {\r\n        uint256 equipmentId;\r\n        string equipmentName;\r\n        address userAddress;\r\n        string state;\r\n        uint256 productId;\r\n    }\r\n\r\n    mapping(uint256 => Equipment) public equipments;\r\n    uint256 public equipmentCount;\r\n\r\n    event EquipmentAdded(\r\n        uint256 equipmentId,\r\n        string equipmentName,\r\n        address userAddress,\r\n        string state,\r\n        uint256 productId\r\n    );\r\n\r\n    function addEquipment(\r\n        string memory _equipmentName,\r\n        uint256 _productId,\r\n        address _userAddress\r\n    ) external {\r\n        equipmentCount++;\r\n        equipments[equipmentCount] = Equipment(\r\n            equipmentCount,\r\n            _equipmentName,\r\n            _userAddress,\r\n            \"Stopped\",\r\n            _productId\r\n        );\r\n        emit EquipmentAdded(\r\n            equipmentCount,\r\n            _equipmentName,\r\n            _userAddress,\r\n            \"Stopped\",\r\n            _productId\r\n        );\r\n    }\r\n\r\n    function equipmentExists(uint256 _equipmentId) public view returns (bool) {\r\n        return _equipmentId > 0 && _equipmentId <= equipmentCount;\r\n    }\r\n\r\n    function getAllEquipments() external view returns (Equipment[] memory) {\r\n        Equipment[] memory allEquipments = new Equipment[](equipmentCount);\r\n        for (uint256 i = 1; i <= equipmentCount; i++) {\r\n            allEquipments[i - 1] = equipments[i];\r\n        }\r\n        return allEquipments;\r\n    }\r\n\r\n    function getEquipmentById(\r\n        uint256 _equipmentId\r\n    ) public view returns (Equipment memory) {\r\n        Equipment memory equipment = equipments[_equipmentId - 1];\r\n        return equipment;\r\n    }\r\n}\r\n",
  "sourcePath": "D:\\Freelance\\facroryreact\\factorymanagment\\blockchain\\contracts\\3_Equipments.sol",
  "compiler": {
    "name": "solc",
    "version": "0.8.21+commit.d9974bed.Emscripten.clang"
  },
  "schemaVersion": "3.4.16",
  "updatedAt": "2024-04-07T11:57:44.263Z",
  "networkType": "ethereum",
  "devdoc": {
    "kind": "dev",
    "methods": {},
    "version": 1
  },
  "userdoc": {
    "kind": "user",
    "methods": {},
    "version": 1
  }
}