{
  "contractName": "Products",
  "abi": [
    {
      "anonymous": false,
      "inputs": [
        {
          "indexed": false,
          "internalType": "uint256",
          "name": "productId",
          "type": "uint256"
        },
        {
          "indexed": false,
          "internalType": "string",
          "name": "productName",
          "type": "string"
        },
        {
          "indexed": false,
          "internalType": "address",
          "name": "userAddress",
          "type": "address"
        }
      ],
      "name": "ProductAdded",
      "type": "event"
    },
    {
      "inputs": [],
      "name": "productCount",
      "outputs": [
        {
          "internalType": "uint256",
          "name": "",
          "type": "uint256"
        }
      ],
      "stateMutability": "view",
      "type": "function",
      "constant": true
    },
    {
      "inputs": [
        {
          "internalType": "uint256",
          "name": "",
          "type": "uint256"
        }
      ],
      "name": "products",
      "outputs": [
        {
          "internalType": "uint256",
          "name": "productId",
          "type": "uint256"
        },
        {
          "internalType": "string",
          "name": "productName",
          "type": "string"
        },
        {
          "internalType": "uint256",
          "name": "unsoldProduction",
          "type": "uint256"
        },
        {
          "internalType": "uint256",
          "name": "totalProduction",
          "type": "uint256"
        },
        {
          "internalType": "uint256",
          "name": "soldProduction",
          "type": "uint256"
        },
        {
          "internalType": "uint256",
          "name": "price",
          "type": "uint256"
        },
        {
          "internalType": "address",
          "name": "userAddress",
          "type": "address"
        }
      ],
      "stateMutability": "view",
      "type": "function",
      "constant": true
    },
    {
      "inputs": [
        {
          "internalType": "string",
          "name": "_productName",
          "type": "string"
        },
        {
          "internalType": "uint256",
          "name": "_price",
          "type": "uint256"
        },
        {
          "internalType": "address",
          "name": "_userAddress",
          "type": "address"
        }
      ],
      "name": "addProduct",
      "outputs": [],
      "stateMutability": "nonpayable",
      "type": "function"
    },
    {
      "inputs": [
        {
          "internalType": "uint256",
          "name": "_productId",
          "type": "uint256"
        },
        {
          "internalType": "uint256",
          "name": "_unsoldProduction",
          "type": "uint256"
        },
        {
          "internalType": "uint256",
          "name": "_totalProduction",
          "type": "uint256"
        },
        {
          "internalType": "uint256",
          "name": "_soldProduction",
          "type": "uint256"
        }
      ],
      "name": "updateProduction",
      "outputs": [],
      "stateMutability": "nonpayable",
      "type": "function"
    },
    {
      "inputs": [
        {
          "internalType": "uint256",
          "name": "_productId",
          "type": "uint256"
        }
      ],
      "name": "productExists",
      "outputs": [
        {
          "internalType": "bool",
          "name": "",
          "type": "bool"
        }
      ],
      "stateMutability": "view",
      "type": "function",
      "constant": true
    },
    {
      "inputs": [
        {
          "internalType": "uint256",
          "name": "_productId",
          "type": "uint256"
        },
        {
          "internalType": "uint256",
          "name": "_price",
          "type": "uint256"
        }
      ],
      "name": "updatePrice",
      "outputs": [],
      "stateMutability": "nonpayable",
      "type": "function"
    },
    {
      "inputs": [
        {
          "internalType": "uint256",
          "name": "_productId",
          "type": "uint256"
        }
      ],
      "name": "getProductPrice",
      "outputs": [
        {
          "internalType": "uint256",
          "name": "",
          "type": "uint256"
        }
      ],
      "stateMutability": "view",
      "type": "function",
      "constant": true
    },
    {
      "inputs": [
        {
          "internalType": "uint256",
          "name": "_productId",
          "type": "uint256"
        },
        {
          "internalType": "int256",
          "name": "_delta",
          "type": "int256"
        }
      ],
      "name": "updateUnsoldProduction",
      "outputs": [],
      "stateMutability": "nonpayable",
      "type": "function"
    },
    {
      "inputs": [
        {
          "internalType": "uint256",
          "name": "_productId",
          "type": "uint256"
        },
        {
          "internalType": "uint256",
          "name": "_delta",
          "type": "uint256"
        }
      ],
      "name": "updateTotalProduction",
      "outputs": [],
      "stateMutability": "nonpayable",
      "type": "function"
    },
    {
      "inputs": [
        {
          "internalType": "uint256",
          "name": "_productId",
          "type": "uint256"
        },
        {
          "internalType": "uint256",
          "name": "_delta",
          "type": "uint256"
        }
      ],
      "name": "updateSoldProduction",
      "outputs": [],
      "stateMutability": "nonpayable",
      "type": "function"
    },
    {
      "inputs": [],
      "name": "getAllProducts",
      "outputs": [
        {
          "components": [
            {
              "internalType": "uint256",
              "name": "productId",
              "type": "uint256"
            },
            {
              "internalType": "string",
              "name": "productName",
              "type": "string"
            },
            {
              "internalType": "uint256",
              "name": "unsoldProduction",
              "type": "uint256"
            },
            {
              "internalType": "uint256",
              "name": "totalProduction",
              "type": "uint256"
            },
            {
              "internalType": "uint256",
              "name": "soldProduction",
              "type": "uint256"
            },
            {
              "internalType": "uint256",
              "name": "price",
              "type": "uint256"
            },
            {
              "internalType": "address",
              "name": "userAddress",
              "type": "address"
            }
          ],
          "internalType": "struct Products.Product[]",
          "name": "",
          "type": "tuple[]"
        }
      ],
      "stateMutability": "view",
      "type": "function",
      "constant": true
    },
    {
      "inputs": [
        {
          "internalType": "uint256",
          "name": "_productId",
          "type": "uint256"
        }
      ],
      "name": "getProductById",
      "outputs": [
        {
          "components": [
            {
              "internalType": "uint256",
              "name": "productId",
              "type": "uint256"
            },
            {
              "internalType": "string",
              "name": "productName",
              "type": "string"
            },
            {
              "internalType": "uint256",
              "name": "unsoldProduction",
              "type": "uint256"
            },
            {
              "internalType": "uint256",
              "name": "totalProduction",
              "type": "uint256"
            },
            {
              "internalType": "uint256",
              "name": "soldProduction",
              "type": "uint256"
            },
            {
              "internalType": "uint256",
              "name": "price",
              "type": "uint256"
            },
            {
              "internalType": "address",
              "name": "userAddress",
              "type": "address"
            }
          ],
          "internalType": "struct Products.Product",
          "name": "",
          "type": "tuple"
        }
      ],
      "stateMutability": "view",
      "type": "function",
      "constant": true
    },
    {
      "inputs": [
        {
          "internalType": "uint256",
          "name": "_productId",
          "type": "uint256"
        }
      ],
      "name": "isProductExist",
      "outputs": [
        {
          "internalType": "bool",
          "name": "",
          "type": "bool"
        }
      ],
      "stateMutability": "view",
      "type": "function",
      "constant": true
    }
  ],
  "bytecode": "0x608060405234801561000f575f80fd5b506117108061001d5f395ff3fe608060405234801561000f575f80fd5b50600436106100cd575f3560e01c806382367b2d1161008a578063af55ed6411610064578063af55ed6414610211578063afe0558014610241578063e0f6ef871461025d578063e7bf7dfc1461027b576100cd565b806382367b2d146101bd57806394bf7287146101d9578063a8ff20f9146101f5576100cd565b806302ee3a52146100d1578063093fb6fc146100ef5780633f70c2b41461010b5780634a8a64f41461013b578063720a534e1461016b5780637acc0b2014610187575b5f80fd5b6100d96102ab565b6040516100e69190610c7e565b60405180910390f35b61010960048036038101906101049190610d0c565b61048b565b005b61012560048036038101906101209190610d4a565b610511565b6040516101329190610e0e565b60405180910390f35b61015560048036038101906101509190610d4a565b61065d565b6040516101629190610e48565b60405180910390f35b61018560048036038101906101809190610e61565b610676565b005b6101a1600480360381019061019c9190610d4a565b6106f0565b6040516101b49796959493929190610f2b565b60405180910390f35b6101d760048036038101906101d29190610f9f565b6107d2565b005b6101f360048036038101906101ee9190610f9f565b610833565b005b61020f600480360381019061020a9190611133565b61084f565b005b61022b60048036038101906102269190610d4a565b610994565b6040516102389190610e48565b60405180910390f35b61025b60048036038101906102569190610f9f565b6109ad565b005b6102656109da565b604051610272919061119f565b60405180910390f35b61029560048036038101906102909190610d4a565b6109e0565b6040516102a2919061119f565b60405180910390f35b60605f60015467ffffffffffffffff8111156102ca576102c9610fe5565b5b60405190808252806020026020018201604052801561030357816020015b6102f06109fc565b8152602001906001900390816102e85790505b5090505f600190505b6001548111610483575f808281526020019081526020015f206040518060e00160405290815f8201548152602001600182018054610349906111e5565b80601f0160208091040260200160405190810160405280929190818152602001828054610375906111e5565b80156103c05780601f10610397576101008083540402835291602001916103c0565b820191905f5260205f20905b8154815290600101906020018083116103a357829003601f168201915b5050505050815260200160028201548152602001600382015481526020016004820154815260200160058201548152602001600682015f9054906101000a900473ffffffffffffffffffffffffffffffffffffffff1673ffffffffffffffffffffffffffffffffffffffff1673ffffffffffffffffffffffffffffffffffffffff1681525050826001836104549190611242565b8151811061046557610464611275565b5b6020026020010181905250808061047b906112a2565b91505061030c565b508091505090565b5f811215806104b657508061049f906112e9565b5f808481526020019081526020015f206002015410155b6104f5576040517f08c379a00000000000000000000000000000000000000000000000000000000081526004016104ec90611379565b60405180910390fd5b805f808481526020019081526020015f20600201819055505050565b6105196109fc565b5f806001846105289190611242565b81526020019081526020015f206040518060e00160405290815f8201548152602001600182018054610559906111e5565b80601f0160208091040260200160405190810160405280929190818152602001828054610585906111e5565b80156105d05780601f106105a7576101008083540402835291602001916105d0565b820191905f5260205f20905b8154815290600101906020018083116105b357829003601f168201915b5050505050815260200160028201548152602001600382015481526020016004820154815260200160058201548152602001600682015f9054906101000a900473ffffffffffffffffffffffffffffffffffffffff1673ffffffffffffffffffffffffffffffffffffffff1673ffffffffffffffffffffffffffffffffffffffff16815250509050919050565b5f808211801561066f57506001548211155b9050919050565b6001548411156106bb576040517f08c379a00000000000000000000000000000000000000000000000000000000081526004016106b2906113e1565b60405180910390fd5b5f805f8681526020019081526020015f2090508381600201819055508281600301819055508181600401819055505050505050565b5f602052805f5260405f205f91509050805f015490806001018054610714906111e5565b80601f0160208091040260200160405190810160405280929190818152602001828054610740906111e5565b801561078b5780601f106107625761010080835404028352916020019161078b565b820191905f5260205f20905b81548152906001019060200180831161076e57829003601f168201915b505050505090806002015490806003015490806004015490806005015490806006015f9054906101000a900473ffffffffffffffffffffffffffffffffffffffff16905087565b600154821115610817576040517f08c379a000000000000000000000000000000000000000000000000000000000815260040161080e906113e1565b60405180910390fd5b805f808481526020019081526020015f20600501819055505050565b805f808481526020019081526020015f20600401819055505050565b60015f815480929190610861906112a2565b91905055506040518060e0016040528060015481526020018481526020015f81526020015f81526020015f81526020018381526020018273ffffffffffffffffffffffffffffffffffffffff168152505f8060015481526020019081526020015f205f820151815f015560208201518160010190816108e0919061159c565b5060408201518160020155606082015181600301556080820151816004015560a0820151816005015560c0820151816006015f6101000a81548173ffffffffffffffffffffffffffffffffffffffff021916908373ffffffffffffffffffffffffffffffffffffffff1602179055509050507f8193aac6f424277fc758106db15a98f50eaf850bfd0b9178fbfa308e153b049560015484836040516109879392919061166b565b60405180910390a1505050565b5f80821180156109a657506001548211155b9050919050565b805f808481526020019081526020015f206003015f8282546109cf91906116a7565b925050819055505050565b60015481565b5f805f8381526020019081526020015f20600501549050919050565b6040518060e001604052805f8152602001606081526020015f81526020015f81526020015f81526020015f81526020015f73ffffffffffffffffffffffffffffffffffffffff1681525090565b5f81519050919050565b5f82825260208201905092915050565b5f819050602082019050919050565b5f819050919050565b610a8481610a72565b82525050565b5f81519050919050565b5f82825260208201905092915050565b5f5b83811015610ac1578082015181840152602081019050610aa6565b5f8484015250505050565b5f601f19601f8301169050919050565b5f610ae682610a8a565b610af08185610a94565b9350610b00818560208601610aa4565b610b0981610acc565b840191505092915050565b5f73ffffffffffffffffffffffffffffffffffffffff82169050919050565b5f610b3d82610b14565b9050919050565b610b4d81610b33565b82525050565b5f60e083015f830151610b685f860182610a7b565b5060208301518482036020860152610b808282610adc565b9150506040830151610b956040860182610a7b565b506060830151610ba86060860182610a7b565b506080830151610bbb6080860182610a7b565b5060a0830151610bce60a0860182610a7b565b5060c0830151610be160c0860182610b44565b508091505092915050565b5f610bf78383610b53565b905092915050565b5f602082019050919050565b5f610c1582610a49565b610c1f8185610a53565b935083602082028501610c3185610a63565b805f5b85811015610c6c5784840389528151610c4d8582610bec565b9450610c5883610bff565b925060208a01995050600181019050610c34565b50829750879550505050505092915050565b5f6020820190508181035f830152610c968184610c0b565b905092915050565b5f604051905090565b5f80fd5b5f80fd5b610cb881610a72565b8114610cc2575f80fd5b50565b5f81359050610cd381610caf565b92915050565b5f819050919050565b610ceb81610cd9565b8114610cf5575f80fd5b50565b5f81359050610d0681610ce2565b92915050565b5f8060408385031215610d2257610d21610ca7565b5b5f610d2f85828601610cc5565b9250506020610d4085828601610cf8565b9150509250929050565b5f60208284031215610d5f57610d5e610ca7565b5b5f610d6c84828501610cc5565b91505092915050565b5f60e083015f830151610d8a5f860182610a7b565b5060208301518482036020860152610da28282610adc565b9150506040830151610db76040860182610a7b565b506060830151610dca6060860182610a7b565b506080830151610ddd6080860182610a7b565b5060a0830151610df060a0860182610a7b565b5060c0830151610e0360c0860182610b44565b508091505092915050565b5f6020820190508181035f830152610e268184610d75565b905092915050565b5f8115159050919050565b610e4281610e2e565b82525050565b5f602082019050610e5b5f830184610e39565b92915050565b5f805f8060808587031215610e7957610e78610ca7565b5b5f610e8687828801610cc5565b9450506020610e9787828801610cc5565b9350506040610ea887828801610cc5565b9250506060610eb987828801610cc5565b91505092959194509250565b610ece81610a72565b82525050565b5f82825260208201905092915050565b5f610eee82610a8a565b610ef88185610ed4565b9350610f08818560208601610aa4565b610f1181610acc565b840191505092915050565b610f2581610b33565b82525050565b5f60e082019050610f3e5f83018a610ec5565b8181036020830152610f508189610ee4565b9050610f5f6040830188610ec5565b610f6c6060830187610ec5565b610f796080830186610ec5565b610f8660a0830185610ec5565b610f9360c0830184610f1c565b98975050505050505050565b5f8060408385031215610fb557610fb4610ca7565b5b5f610fc285828601610cc5565b9250506020610fd385828601610cc5565b9150509250929050565b5f80fd5b5f80fd5b7f4e487b71000000000000000000000000000000000000000000000000000000005f52604160045260245ffd5b61101b82610acc565b810181811067ffffffffffffffff8211171561103a57611039610fe5565b5b80604052505050565b5f61104c610c9e565b90506110588282611012565b919050565b5f67ffffffffffffffff82111561107757611076610fe5565b5b61108082610acc565b9050602081019050919050565b828183375f83830152505050565b5f6110ad6110a88461105d565b611043565b9050828152602081018484840111156110c9576110c8610fe1565b5b6110d484828561108d565b509392505050565b5f82601f8301126110f0576110ef610fdd565b5b813561110084826020860161109b565b91505092915050565b61111281610b33565b811461111c575f80fd5b50565b5f8135905061112d81611109565b92915050565b5f805f6060848603121561114a57611149610ca7565b5b5f84013567ffffffffffffffff81111561116757611166610cab565b5b611173868287016110dc565b935050602061118486828701610cc5565b92505060406111958682870161111f565b9150509250925092565b5f6020820190506111b25f830184610ec5565b92915050565b7f4e487b71000000000000000000000000000000000000000000000000000000005f52602260045260245ffd5b5f60028204905060018216806111fc57607f821691505b60208210810361120f5761120e6111b8565b5b50919050565b7f4e487b71000000000000000000000000000000000000000000000000000000005f52601160045260245ffd5b5f61124c82610a72565b915061125783610a72565b925082820390508181111561126f5761126e611215565b5b92915050565b7f4e487b71000000000000000000000000000000000000000000000000000000005f52603260045260245ffd5b5f6112ac82610a72565b91507fffffffffffffffffffffffffffffffffffffffffffffffffffffffffffffffff82036112de576112dd611215565b5b600182019050919050565b5f6112f382610cd9565b91507f8000000000000000000000000000000000000000000000000000000000000000820361132557611324611215565b5b815f039050919050565b7f496e73756666696369656e7420756e736f6c642070726f64756374696f6e00005f82015250565b5f611363601e83610ed4565b915061136e8261132f565b602082019050919050565b5f6020820190508181035f83015261139081611357565b9050919050565b7f496e76616c69642050726f6475637420494400000000000000000000000000005f82015250565b5f6113cb601283610ed4565b91506113d682611397565b602082019050919050565b5f6020820190508181035f8301526113f8816113bf565b9050919050565b5f819050815f5260205f209050919050565b5f6020601f8301049050919050565b5f82821b905092915050565b5f6008830261145b7fffffffffffffffffffffffffffffffffffffffffffffffffffffffffffffffff82611420565b6114658683611420565b95508019841693508086168417925050509392505050565b5f819050919050565b5f6114a061149b61149684610a72565b61147d565b610a72565b9050919050565b5f819050919050565b6114b983611486565b6114cd6114c5826114a7565b84845461142c565b825550505050565b5f90565b6114e16114d5565b6114ec8184846114b0565b505050565b5b8181101561150f576115045f826114d9565b6001810190506114f2565b5050565b601f82111561155457611525816113ff565b61152e84611411565b8101602085101561153d578190505b61155161154985611411565b8301826114f1565b50505b505050565b5f82821c905092915050565b5f6115745f1984600802611559565b1980831691505092915050565b5f61158c8383611565565b9150826002028217905092915050565b6115a582610a8a565b67ffffffffffffffff8111156115be576115bd610fe5565b5b6115c882546111e5565b6115d3828285611513565b5f60209050601f831160018114611604575f84156115f2578287015190505b6115fc8582611581565b865550611663565b601f198416611612866113ff565b5f5b8281101561163957848901518255600182019150602085019450602081019050611614565b868310156116565784890151611652601f891682611565565b8355505b6001600288020188555050505b505050505050565b5f60608201905061167e5f830186610ec5565b81810360208301526116908185610ee4565b905061169f6040830184610f1c565b949350505050565b5f6116b182610a72565b91506116bc83610a72565b92508282019050808211156116d4576116d3611215565b5b9291505056fea2646970667358221220f21a09c4b880f69f7697abb2541bb0f533934f51e87e338f2e03f4d8d194563d64736f6c63430008150033",
  "immutableReferences": {},
  "source": "// SPDX-License-Identifier: MIT\r\npragma solidity ^0.8.0;\r\n\r\ncontract Products {\r\n    struct Product {\r\n        uint256 productId;\r\n        string productName;\r\n        uint256 unsoldProduction;\r\n        uint256 totalProduction;\r\n        uint256 soldProduction;\r\n        uint256 price;\r\n        address userAddress;\r\n    }\r\n\r\n    mapping(uint256 => Product) public products;\r\n    uint256 public productCount;\r\n\r\n    event ProductAdded(\r\n        uint256 productId,\r\n        string productName,\r\n        address userAddress\r\n    );\r\n\r\n    function addProduct(\r\n        string memory _productName,\r\n        uint256 _price,\r\n        address _userAddress\r\n    ) external {\r\n        productCount++;\r\n        products[productCount] = Product(\r\n            productCount,\r\n            _productName,\r\n            0,\r\n            0,\r\n            0,\r\n            _price,\r\n            _userAddress\r\n        );\r\n        emit ProductAdded(productCount, _productName, _userAddress);\r\n    }\r\n\r\n    function updateProduction(\r\n        uint256 _productId,\r\n        uint256 _unsoldProduction,\r\n        uint256 _totalProduction,\r\n        uint256 _soldProduction\r\n    ) external {\r\n        require(_productId <= productCount, \"Invalid Product ID\");\r\n        Product storage product = products[_productId];\r\n        product.unsoldProduction = _unsoldProduction;\r\n        product.totalProduction = _totalProduction;\r\n        product.soldProduction = _soldProduction;\r\n    }\r\n\r\n    function productExists(uint256 _productId) public view returns (bool) {\r\n        return _productId > 0 && _productId <= productCount;\r\n    }\r\n\r\n    function updatePrice(uint256 _productId, uint256 _price) external {\r\n        require(_productId <= productCount, \"Invalid Product ID\");\r\n        products[_productId].price = _price;\r\n    }\r\n\r\n    function getProductPrice(\r\n        uint256 _productId\r\n    ) external view returns (uint256) {\r\n        return products[_productId].price;\r\n    }\r\n\r\n    function updateUnsoldProduction(\r\n        uint256 _productId,\r\n        int256 _delta\r\n    ) external {\r\n        require(\r\n            _delta >= 0 ||\r\n                products[_productId].unsoldProduction >= uint256(-_delta),\r\n            \"Insufficient unsold production\"\r\n        );\r\n        products[_productId].unsoldProduction = uint256(_delta);\r\n    }\r\n\r\n    function updateTotalProduction(\r\n        uint256 _productId,\r\n        uint256 _delta\r\n    ) external {\r\n        products[_productId].totalProduction += _delta;\r\n    }\r\n\r\n    function updateSoldProduction(uint256 _productId, uint256 _delta) external {\r\n        products[_productId].soldProduction = _delta;\r\n    }\r\n\r\n    function getAllProducts() external view returns (Product[] memory) {\r\n        Product[] memory allProducts = new Product[](productCount);\r\n        for (uint256 i = 1; i <= productCount; i++) {\r\n            allProducts[i - 1] = products[i];\r\n        }\r\n        return allProducts;\r\n    }\r\n\r\n    function getProductById(\r\n        uint256 _productId\r\n    ) public view returns (Product memory) {\r\n        return products[_productId - 1];\r\n    }\r\n\r\n    function isProductExist(uint256 _productId) public view returns (bool) {\r\n        return _productId > 0 && _productId <= productCount;\r\n    }\r\n}\r\n",
  "sourcePath": "D:\\BlockChain Projects\\factory full\\factroryreact\\blockchain\\contracts\\2_Products.sol",
  "compiler": {
    "name": "solc",
    "version": "0.8.21+commit.d9974bed.Emscripten.clang"
  },
  "schemaVersion": "3.4.16",
  "updatedAt": "2024-04-07T14:48:25.989Z",
  "networkType": "ethereum",
  "devdoc": {
    "kind": "dev",
    "methods": {},
    "version": 1
  },
  "userdoc": {
    "kind": "user",
    "methods": {},
    "version": 1
  }
}