{
  "contractName": "Products",
  "abi": [
    {
      "anonymous": false,
      "inputs": [
        {
          "indexed": false,
          "internalType": "uint256",
          "name": "productId",
          "type": "uint256"
        },
        {
          "indexed": false,
          "internalType": "string",
          "name": "productName",
          "type": "string"
        },
        {
          "indexed": false,
          "internalType": "address",
          "name": "userAddress",
          "type": "address"
        }
      ],
      "name": "ProductAdded",
      "type": "event"
    },
    {
      "inputs": [],
      "name": "productCount",
      "outputs": [
        {
          "internalType": "uint256",
          "name": "",
          "type": "uint256"
        }
      ],
      "stateMutability": "view",
      "type": "function",
      "constant": true
    },
    {
      "inputs": [
        {
          "internalType": "uint256",
          "name": "",
          "type": "uint256"
        }
      ],
      "name": "products",
      "outputs": [
        {
          "internalType": "uint256",
          "name": "productId",
          "type": "uint256"
        },
        {
          "internalType": "string",
          "name": "productName",
          "type": "string"
        },
        {
          "internalType": "uint256",
          "name": "unsoldProduction",
          "type": "uint256"
        },
        {
          "internalType": "uint256",
          "name": "totalProduction",
          "type": "uint256"
        },
        {
          "internalType": "uint256",
          "name": "soldProduction",
          "type": "uint256"
        },
        {
          "internalType": "uint256",
          "name": "price",
          "type": "uint256"
        },
        {
          "internalType": "address",
          "name": "userAddress",
          "type": "address"
        }
      ],
      "stateMutability": "view",
      "type": "function",
      "constant": true
    },
    {
      "inputs": [
        {
          "internalType": "string",
          "name": "_productName",
          "type": "string"
        },
        {
          "internalType": "uint256",
          "name": "_price",
          "type": "uint256"
        },
        {
          "internalType": "address",
          "name": "_userAddress",
          "type": "address"
        }
      ],
      "name": "addProduct",
      "outputs": [],
      "stateMutability": "nonpayable",
      "type": "function"
    },
    {
      "inputs": [
        {
          "internalType": "uint256",
          "name": "_productId",
          "type": "uint256"
        },
        {
          "internalType": "uint256",
          "name": "_unsoldProduction",
          "type": "uint256"
        },
        {
          "internalType": "uint256",
          "name": "_totalProduction",
          "type": "uint256"
        },
        {
          "internalType": "uint256",
          "name": "_soldProduction",
          "type": "uint256"
        }
      ],
      "name": "updateProduction",
      "outputs": [],
      "stateMutability": "nonpayable",
      "type": "function"
    },
    {
      "inputs": [
        {
          "internalType": "uint256",
          "name": "_productId",
          "type": "uint256"
        }
      ],
      "name": "productExists",
      "outputs": [
        {
          "internalType": "bool",
          "name": "",
          "type": "bool"
        }
      ],
      "stateMutability": "view",
      "type": "function",
      "constant": true
    },
    {
      "inputs": [
        {
          "internalType": "uint256",
          "name": "_productId",
          "type": "uint256"
        },
        {
          "internalType": "uint256",
          "name": "_price",
          "type": "uint256"
        }
      ],
      "name": "updatePrice",
      "outputs": [],
      "stateMutability": "nonpayable",
      "type": "function"
    },
    {
      "inputs": [
        {
          "internalType": "uint256",
          "name": "_productId",
          "type": "uint256"
        }
      ],
      "name": "getProductPrice",
      "outputs": [
        {
          "internalType": "uint256",
          "name": "",
          "type": "uint256"
        }
      ],
      "stateMutability": "view",
      "type": "function",
      "constant": true
    },
    {
      "inputs": [
        {
          "internalType": "uint256",
          "name": "_productId",
          "type": "uint256"
        },
        {
          "internalType": "int256",
          "name": "_delta",
          "type": "int256"
        }
      ],
      "name": "updateUnsoldProduction",
      "outputs": [],
      "stateMutability": "nonpayable",
      "type": "function"
    },
    {
      "inputs": [
        {
          "internalType": "uint256",
          "name": "_productId",
          "type": "uint256"
        },
        {
          "internalType": "uint256",
          "name": "_delta",
          "type": "uint256"
        }
      ],
      "name": "updateTotalProduction",
      "outputs": [],
      "stateMutability": "nonpayable",
      "type": "function"
    },
    {
      "inputs": [
        {
          "internalType": "uint256",
          "name": "_productId",
          "type": "uint256"
        },
        {
          "internalType": "uint256",
          "name": "_delta",
          "type": "uint256"
        }
      ],
      "name": "updateSoldProduction",
      "outputs": [],
      "stateMutability": "nonpayable",
      "type": "function"
    },
    {
      "inputs": [],
      "name": "getAllProducts",
      "outputs": [
        {
          "components": [
            {
              "internalType": "uint256",
              "name": "productId",
              "type": "uint256"
            },
            {
              "internalType": "string",
              "name": "productName",
              "type": "string"
            },
            {
              "internalType": "uint256",
              "name": "unsoldProduction",
              "type": "uint256"
            },
            {
              "internalType": "uint256",
              "name": "totalProduction",
              "type": "uint256"
            },
            {
              "internalType": "uint256",
              "name": "soldProduction",
              "type": "uint256"
            },
            {
              "internalType": "uint256",
              "name": "price",
              "type": "uint256"
            },
            {
              "internalType": "address",
              "name": "userAddress",
              "type": "address"
            }
          ],
          "internalType": "struct Products.Product[]",
          "name": "",
          "type": "tuple[]"
        }
      ],
      "stateMutability": "view",
      "type": "function",
      "constant": true
    },
    {
      "inputs": [
        {
          "internalType": "uint256",
          "name": "_productId",
          "type": "uint256"
        }
      ],
      "name": "getProductById",
      "outputs": [
        {
          "components": [
            {
              "internalType": "uint256",
              "name": "productId",
              "type": "uint256"
            },
            {
              "internalType": "string",
              "name": "productName",
              "type": "string"
            },
            {
              "internalType": "uint256",
              "name": "unsoldProduction",
              "type": "uint256"
            },
            {
              "internalType": "uint256",
              "name": "totalProduction",
              "type": "uint256"
            },
            {
              "internalType": "uint256",
              "name": "soldProduction",
              "type": "uint256"
            },
            {
              "internalType": "uint256",
              "name": "price",
              "type": "uint256"
            },
            {
              "internalType": "address",
              "name": "userAddress",
              "type": "address"
            }
          ],
          "internalType": "struct Products.Product",
          "name": "",
          "type": "tuple"
        }
      ],
      "stateMutability": "view",
      "type": "function",
      "constant": true
    }
  ],
  "bytecode": "0x608060405234801561000f575f80fd5b506116ac8061001d5f395ff3fe608060405234801561000f575f80fd5b50600436106100b2575f3560e01c806394bf72871161006f57806394bf72871461018e578063a8ff20f9146101aa578063af55ed64146101c6578063afe05580146101f6578063e0f6ef8714610212578063e7bf7dfc14610230576100b2565b806302ee3a52146100b6578063093fb6fc146100d45780633f70c2b4146100f0578063720a534e146101205780637acc0b201461013c57806382367b2d14610172575b5f80fd5b6100be610260565b6040516100cb9190610c1a565b60405180910390f35b6100ee60048036038101906100e99190610ca8565b610440565b005b61010a60048036038101906101059190610ce6565b6104c6565b6040516101179190610daa565b60405180910390f35b61013a60048036038101906101359190610dca565b610612565b005b61015660048036038101906101519190610ce6565b61068c565b6040516101699796959493929190610e94565b60405180910390f35b61018c60048036038101906101879190610f08565b61076e565b005b6101a860048036038101906101a39190610f08565b6107cf565b005b6101c460048036038101906101bf919061109c565b6107eb565b005b6101e060048036038101906101db9190610ce6565b610930565b6040516101ed9190611122565b60405180910390f35b610210600480360381019061020b9190610f08565b610949565b005b61021a610976565b604051610227919061113b565b60405180910390f35b61024a60048036038101906102459190610ce6565b61097c565b604051610257919061113b565b60405180910390f35b60605f60015467ffffffffffffffff81111561027f5761027e610f4e565b5b6040519080825280602002602001820160405280156102b857816020015b6102a5610998565b81526020019060019003908161029d5790505b5090505f600190505b6001548111610438575f808281526020019081526020015f206040518060e00160405290815f82015481526020016001820180546102fe90611181565b80601f016020809104026020016040519081016040528092919081815260200182805461032a90611181565b80156103755780601f1061034c57610100808354040283529160200191610375565b820191905f5260205f20905b81548152906001019060200180831161035857829003601f168201915b5050505050815260200160028201548152602001600382015481526020016004820154815260200160058201548152602001600682015f9054906101000a900473ffffffffffffffffffffffffffffffffffffffff1673ffffffffffffffffffffffffffffffffffffffff1673ffffffffffffffffffffffffffffffffffffffff16815250508260018361040991906111de565b8151811061041a57610419611211565b5b602002602001018190525080806104309061123e565b9150506102c1565b508091505090565b5f8112158061046b57508061045490611285565b5f808481526020019081526020015f206002015410155b6104aa576040517f08c379a00000000000000000000000000000000000000000000000000000000081526004016104a190611315565b60405180910390fd5b805f808481526020019081526020015f20600201819055505050565b6104ce610998565b5f806001846104dd91906111de565b81526020019081526020015f206040518060e00160405290815f820154815260200160018201805461050e90611181565b80601f016020809104026020016040519081016040528092919081815260200182805461053a90611181565b80156105855780601f1061055c57610100808354040283529160200191610585565b820191905f5260205f20905b81548152906001019060200180831161056857829003601f168201915b5050505050815260200160028201548152602001600382015481526020016004820154815260200160058201548152602001600682015f9054906101000a900473ffffffffffffffffffffffffffffffffffffffff1673ffffffffffffffffffffffffffffffffffffffff1673ffffffffffffffffffffffffffffffffffffffff16815250509050919050565b600154841115610657576040517f08c379a000000000000000000000000000000000000000000000000000000000815260040161064e9061137d565b60405180910390fd5b5f805f8681526020019081526020015f2090508381600201819055508281600301819055508181600401819055505050505050565b5f602052805f5260405f205f91509050805f0154908060010180546106b090611181565b80601f01602080910402602001604051908101604052809291908181526020018280546106dc90611181565b80156107275780601f106106fe57610100808354040283529160200191610727565b820191905f5260205f20905b81548152906001019060200180831161070a57829003601f168201915b505050505090806002015490806003015490806004015490806005015490806006015f9054906101000a900473ffffffffffffffffffffffffffffffffffffffff16905087565b6001548211156107b3576040517f08c379a00000000000000000000000000000000000000000000000000000000081526004016107aa9061137d565b60405180910390fd5b805f808481526020019081526020015f20600501819055505050565b805f808481526020019081526020015f20600401819055505050565b60015f8154809291906107fd9061123e565b91905055506040518060e0016040528060015481526020018481526020015f81526020015f81526020015f81526020018381526020018273ffffffffffffffffffffffffffffffffffffffff168152505f8060015481526020019081526020015f205f820151815f0155602082015181600101908161087c9190611538565b5060408201518160020155606082015181600301556080820151816004015560a0820151816005015560c0820151816006015f6101000a81548173ffffffffffffffffffffffffffffffffffffffff021916908373ffffffffffffffffffffffffffffffffffffffff1602179055509050507f8193aac6f424277fc758106db15a98f50eaf850bfd0b9178fbfa308e153b0495600154848360405161092393929190611607565b60405180910390a1505050565b5f808211801561094257506001548211155b9050919050565b805f808481526020019081526020015f206003015f82825461096b9190611643565b925050819055505050565b60015481565b5f805f8381526020019081526020015f20600501549050919050565b6040518060e001604052805f8152602001606081526020015f81526020015f81526020015f81526020015f81526020015f73ffffffffffffffffffffffffffffffffffffffff1681525090565b5f81519050919050565b5f82825260208201905092915050565b5f819050602082019050919050565b5f819050919050565b610a2081610a0e565b82525050565b5f81519050919050565b5f82825260208201905092915050565b5f5b83811015610a5d578082015181840152602081019050610a42565b5f8484015250505050565b5f601f19601f8301169050919050565b5f610a8282610a26565b610a8c8185610a30565b9350610a9c818560208601610a40565b610aa581610a68565b840191505092915050565b5f73ffffffffffffffffffffffffffffffffffffffff82169050919050565b5f610ad982610ab0565b9050919050565b610ae981610acf565b82525050565b5f60e083015f830151610b045f860182610a17565b5060208301518482036020860152610b1c8282610a78565b9150506040830151610b316040860182610a17565b506060830151610b446060860182610a17565b506080830151610b576080860182610a17565b5060a0830151610b6a60a0860182610a17565b5060c0830151610b7d60c0860182610ae0565b508091505092915050565b5f610b938383610aef565b905092915050565b5f602082019050919050565b5f610bb1826109e5565b610bbb81856109ef565b935083602082028501610bcd856109ff565b805f5b85811015610c085784840389528151610be98582610b88565b9450610bf483610b9b565b925060208a01995050600181019050610bd0565b50829750879550505050505092915050565b5f6020820190508181035f830152610c328184610ba7565b905092915050565b5f604051905090565b5f80fd5b5f80fd5b610c5481610a0e565b8114610c5e575f80fd5b50565b5f81359050610c6f81610c4b565b92915050565b5f819050919050565b610c8781610c75565b8114610c91575f80fd5b50565b5f81359050610ca281610c7e565b92915050565b5f8060408385031215610cbe57610cbd610c43565b5b5f610ccb85828601610c61565b9250506020610cdc85828601610c94565b9150509250929050565b5f60208284031215610cfb57610cfa610c43565b5b5f610d0884828501610c61565b91505092915050565b5f60e083015f830151610d265f860182610a17565b5060208301518482036020860152610d3e8282610a78565b9150506040830151610d536040860182610a17565b506060830151610d666060860182610a17565b506080830151610d796080860182610a17565b5060a0830151610d8c60a0860182610a17565b5060c0830151610d9f60c0860182610ae0565b508091505092915050565b5f6020820190508181035f830152610dc28184610d11565b905092915050565b5f805f8060808587031215610de257610de1610c43565b5b5f610def87828801610c61565b9450506020610e0087828801610c61565b9350506040610e1187828801610c61565b9250506060610e2287828801610c61565b91505092959194509250565b610e3781610a0e565b82525050565b5f82825260208201905092915050565b5f610e5782610a26565b610e618185610e3d565b9350610e71818560208601610a40565b610e7a81610a68565b840191505092915050565b610e8e81610acf565b82525050565b5f60e082019050610ea75f83018a610e2e565b8181036020830152610eb98189610e4d565b9050610ec86040830188610e2e565b610ed56060830187610e2e565b610ee26080830186610e2e565b610eef60a0830185610e2e565b610efc60c0830184610e85565b98975050505050505050565b5f8060408385031215610f1e57610f1d610c43565b5b5f610f2b85828601610c61565b9250506020610f3c85828601610c61565b9150509250929050565b5f80fd5b5f80fd5b7f4e487b71000000000000000000000000000000000000000000000000000000005f52604160045260245ffd5b610f8482610a68565b810181811067ffffffffffffffff82111715610fa357610fa2610f4e565b5b80604052505050565b5f610fb5610c3a565b9050610fc18282610f7b565b919050565b5f67ffffffffffffffff821115610fe057610fdf610f4e565b5b610fe982610a68565b9050602081019050919050565b828183375f83830152505050565b5f61101661101184610fc6565b610fac565b90508281526020810184848401111561103257611031610f4a565b5b61103d848285610ff6565b509392505050565b5f82601f83011261105957611058610f46565b5b8135611069848260208601611004565b91505092915050565b61107b81610acf565b8114611085575f80fd5b50565b5f8135905061109681611072565b92915050565b5f805f606084860312156110b3576110b2610c43565b5b5f84013567ffffffffffffffff8111156110d0576110cf610c47565b5b6110dc86828701611045565b93505060206110ed86828701610c61565b92505060406110fe86828701611088565b9150509250925092565b5f8115159050919050565b61111c81611108565b82525050565b5f6020820190506111355f830184611113565b92915050565b5f60208201905061114e5f830184610e2e565b92915050565b7f4e487b71000000000000000000000000000000000000000000000000000000005f52602260045260245ffd5b5f600282049050600182168061119857607f821691505b6020821081036111ab576111aa611154565b5b50919050565b7f4e487b71000000000000000000000000000000000000000000000000000000005f52601160045260245ffd5b5f6111e882610a0e565b91506111f383610a0e565b925082820390508181111561120b5761120a6111b1565b5b92915050565b7f4e487b71000000000000000000000000000000000000000000000000000000005f52603260045260245ffd5b5f61124882610a0e565b91507fffffffffffffffffffffffffffffffffffffffffffffffffffffffffffffffff820361127a576112796111b1565b5b600182019050919050565b5f61128f82610c75565b91507f800000000000000000000000000000000000000000000000000000000000000082036112c1576112c06111b1565b5b815f039050919050565b7f496e73756666696369656e7420756e736f6c642070726f64756374696f6e00005f82015250565b5f6112ff601e83610e3d565b915061130a826112cb565b602082019050919050565b5f6020820190508181035f83015261132c816112f3565b9050919050565b7f496e76616c69642050726f6475637420494400000000000000000000000000005f82015250565b5f611367601283610e3d565b915061137282611333565b602082019050919050565b5f6020820190508181035f8301526113948161135b565b9050919050565b5f819050815f5260205f209050919050565b5f6020601f8301049050919050565b5f82821b905092915050565b5f600883026113f77fffffffffffffffffffffffffffffffffffffffffffffffffffffffffffffffff826113bc565b61140186836113bc565b95508019841693508086168417925050509392505050565b5f819050919050565b5f61143c61143761143284610a0e565b611419565b610a0e565b9050919050565b5f819050919050565b61145583611422565b61146961146182611443565b8484546113c8565b825550505050565b5f90565b61147d611471565b61148881848461144c565b505050565b5b818110156114ab576114a05f82611475565b60018101905061148e565b5050565b601f8211156114f0576114c18161139b565b6114ca846113ad565b810160208510156114d9578190505b6114ed6114e5856113ad565b83018261148d565b50505b505050565b5f82821c905092915050565b5f6115105f19846008026114f5565b1980831691505092915050565b5f6115288383611501565b9150826002028217905092915050565b61154182610a26565b67ffffffffffffffff81111561155a57611559610f4e565b5b6115648254611181565b61156f8282856114af565b5f60209050601f8311600181146115a0575f841561158e578287015190505b611598858261151d565b8655506115ff565b601f1984166115ae8661139b565b5f5b828110156115d5578489015182556001820191506020850194506020810190506115b0565b868310156115f257848901516115ee601f891682611501565b8355505b6001600288020188555050505b505050505050565b5f60608201905061161a5f830186610e2e565b818103602083015261162c8185610e4d565b905061163b6040830184610e85565b949350505050565b5f61164d82610a0e565b915061165883610a0e565b92508282019050808211156116705761166f6111b1565b5b9291505056fea26469706673582212205f967c922f73a763ca60af88df01ae3736091cbfe4e854ec750edbd692fe8cec64736f6c63430008150033",
  "immutableReferences": {},
  "source": "// SPDX-License-Identifier: MIT\r\npragma solidity ^0.8.0;\r\n\r\ncontract Products {\r\n    struct Product {\r\n        uint256 productId;\r\n        string productName;\r\n        uint256 unsoldProduction;\r\n        uint256 totalProduction;\r\n        uint256 soldProduction;\r\n        uint256 price;\r\n        address userAddress;\r\n    }\r\n\r\n    mapping(uint256 => Product) public products;\r\n    uint256 public productCount;\r\n\r\n    event ProductAdded(\r\n        uint256 productId,\r\n        string productName,\r\n        address userAddress\r\n    );\r\n\r\n    function addProduct(\r\n        string memory _productName,\r\n        uint256 _price,\r\n        address _userAddress\r\n    ) external {\r\n        productCount++;\r\n        products[productCount] = Product(\r\n            productCount,\r\n            _productName,\r\n            0,\r\n            0,\r\n            0,\r\n            _price,\r\n            _userAddress\r\n        );\r\n        emit ProductAdded(productCount, _productName, _userAddress);\r\n    }\r\n\r\n    function updateProduction(\r\n        uint256 _productId,\r\n        uint256 _unsoldProduction,\r\n        uint256 _totalProduction,\r\n        uint256 _soldProduction\r\n    ) external {\r\n        require(_productId <= productCount, \"Invalid Product ID\");\r\n        Product storage product = products[_productId];\r\n        product.unsoldProduction = _unsoldProduction;\r\n        product.totalProduction = _totalProduction;\r\n        product.soldProduction = _soldProduction;\r\n    }\r\n\r\n    function productExists(uint256 _productId) public view returns (bool) {\r\n        return _productId > 0 && _productId <= productCount;\r\n    }\r\n\r\n    function updatePrice(uint256 _productId, uint256 _price) external {\r\n        require(_productId <= productCount, \"Invalid Product ID\");\r\n        products[_productId].price = _price;\r\n    }\r\n\r\n    function getProductPrice(\r\n        uint256 _productId\r\n    ) external view returns (uint256) {\r\n        return products[_productId].price;\r\n    }\r\n\r\n    function updateUnsoldProduction(\r\n        uint256 _productId,\r\n        int256 _delta\r\n    ) external {\r\n        require(\r\n            _delta >= 0 ||\r\n                products[_productId].unsoldProduction >= uint256(-_delta),\r\n            \"Insufficient unsold production\"\r\n        );\r\n        products[_productId].unsoldProduction = uint256(_delta);\r\n    }\r\n\r\n    function updateTotalProduction(\r\n        uint256 _productId,\r\n        uint256 _delta\r\n    ) external {\r\n        products[_productId].totalProduction += _delta;\r\n    }\r\n\r\n    function updateSoldProduction(uint256 _productId, uint256 _delta) external {\r\n        products[_productId].soldProduction = _delta;\r\n    }\r\n\r\n    function getAllProducts() external view returns (Product[] memory) {\r\n        Product[] memory allProducts = new Product[](productCount);\r\n        for (uint256 i = 1; i <= productCount; i++) {\r\n            allProducts[i - 1] = products[i];\r\n        }\r\n        return allProducts;\r\n    }\r\n\r\n    function getProductById(\r\n        uint256 _productId\r\n    ) public view returns (Product memory) {\r\n        return products[_productId - 1];\r\n    }\r\n}\r\n",
  "sourcePath": "D:\\BlockChain Projects\\factory full\\factroryreact\\blockchain\\contracts\\2_Products.sol",
  "compiler": {
    "name": "solc",
    "version": "0.8.21+commit.d9974bed.Emscripten.clang"
  },
  "schemaVersion": "3.4.16",
  "updatedAt": "2024-04-07T11:38:04.066Z",
  "networkType": "ethereum",
  "devdoc": {
    "kind": "dev",
    "methods": {},
    "version": 1
  },
  "userdoc": {
    "kind": "user",
    "methods": {},
    "version": 1
  }
}