{
  "contractName": "Equipments",
  "abi": [
    {
      "anonymous": false,
      "inputs": [
        {
          "indexed": false,
          "internalType": "uint256",
          "name": "equipmentId",
          "type": "uint256"
        },
        {
          "indexed": false,
          "internalType": "string",
          "name": "equipmentName",
          "type": "string"
        },
        {
          "indexed": false,
          "internalType": "address",
          "name": "userAddress",
          "type": "address"
        },
        {
          "indexed": false,
          "internalType": "string",
          "name": "state",
          "type": "string"
        },
        {
          "indexed": false,
          "internalType": "uint256",
          "name": "productId",
          "type": "uint256"
        }
      ],
      "name": "EquipmentAdded",
      "type": "event"
    },
    {
      "anonymous": false,
      "inputs": [
        {
          "indexed": false,
          "internalType": "uint256",
          "name": "equipmentId",
          "type": "uint256"
        },
        {
          "indexed": false,
          "internalType": "string",
          "name": "newState",
          "type": "string"
        }
      ],
      "name": "EquipmentStateChanged",
      "type": "event"
    },
    {
      "inputs": [],
      "name": "equipmentCount",
      "outputs": [
        {
          "internalType": "uint256",
          "name": "",
          "type": "uint256"
        }
      ],
      "stateMutability": "view",
      "type": "function",
      "constant": true
    },
    {
      "inputs": [
        {
          "internalType": "uint256",
          "name": "",
          "type": "uint256"
        }
      ],
      "name": "equipments",
      "outputs": [
        {
          "internalType": "uint256",
          "name": "equipmentId",
          "type": "uint256"
        },
        {
          "internalType": "string",
          "name": "equipmentName",
          "type": "string"
        },
        {
          "internalType": "address",
          "name": "userAddress",
          "type": "address"
        },
        {
          "internalType": "string",
          "name": "state",
          "type": "string"
        },
        {
          "internalType": "uint256",
          "name": "productId",
          "type": "uint256"
        }
      ],
      "stateMutability": "view",
      "type": "function",
      "constant": true
    },
    {
      "inputs": [
        {
          "internalType": "string",
          "name": "_equipmentName",
          "type": "string"
        },
        {
          "internalType": "uint256",
          "name": "_productId",
          "type": "uint256"
        },
        {
          "internalType": "address",
          "name": "_userAddress",
          "type": "address"
        }
      ],
      "name": "addEquipment",
      "outputs": [],
      "stateMutability": "nonpayable",
      "type": "function"
    },
    {
      "inputs": [
        {
          "internalType": "uint256",
          "name": "_equipmentId",
          "type": "uint256"
        }
      ],
      "name": "equipmentExists",
      "outputs": [
        {
          "internalType": "bool",
          "name": "",
          "type": "bool"
        }
      ],
      "stateMutability": "view",
      "type": "function",
      "constant": true
    },
    {
      "inputs": [],
      "name": "getAllEquipments",
      "outputs": [
        {
          "components": [
            {
              "internalType": "uint256",
              "name": "equipmentId",
              "type": "uint256"
            },
            {
              "internalType": "string",
              "name": "equipmentName",
              "type": "string"
            },
            {
              "internalType": "address",
              "name": "userAddress",
              "type": "address"
            },
            {
              "internalType": "string",
              "name": "state",
              "type": "string"
            },
            {
              "internalType": "uint256",
              "name": "productId",
              "type": "uint256"
            }
          ],
          "internalType": "struct Equipments.Equipment[]",
          "name": "",
          "type": "tuple[]"
        }
      ],
      "stateMutability": "view",
      "type": "function",
      "constant": true
    },
    {
      "inputs": [
        {
          "internalType": "uint256",
          "name": "_equipmentId",
          "type": "uint256"
        }
      ],
      "name": "getEquipmentById",
      "outputs": [
        {
          "components": [
            {
              "internalType": "uint256",
              "name": "equipmentId",
              "type": "uint256"
            },
            {
              "internalType": "string",
              "name": "equipmentName",
              "type": "string"
            },
            {
              "internalType": "address",
              "name": "userAddress",
              "type": "address"
            },
            {
              "internalType": "string",
              "name": "state",
              "type": "string"
            },
            {
              "internalType": "uint256",
              "name": "productId",
              "type": "uint256"
            }
          ],
          "internalType": "struct Equipments.Equipment",
          "name": "",
          "type": "tuple"
        }
      ],
      "stateMutability": "view",
      "type": "function",
      "constant": true
    },
    {
      "inputs": [
        {
          "internalType": "uint256",
          "name": "_equipmentId",
          "type": "uint256"
        },
        {
          "internalType": "string",
          "name": "_newState",
          "type": "string"
        }
      ],
      "name": "changeEquipmentState",
      "outputs": [],
      "stateMutability": "nonpayable",
      "type": "function"
    }
  ],
  "bytecode": "0x608060405234801561000f575f80fd5b506114da8061001d5f395ff3fe608060405234801561000f575f80fd5b506004361061007b575f3560e01c806357a286e51161005957806357a286e5146100e9578063a4491bac14610119578063a6efd62014610135578063d2685825146101695761007b565b806328512d2b1461007f5780632d14394b1461009d5780634ca60879146100b9575b5f80fd5b610087610187565b604051610094919061097f565b60405180910390f35b6100b760048036038101906100b29190610b69565b61018d565b005b6100d360048036038101906100ce9190610bd5565b6102f5565b6040516100e09190610c1a565b60405180910390f35b61010360048036038101906100fe9190610bd5565b61030e565b6040516101109190610d45565b60405180910390f35b610133600480360381019061012e9190610d65565b6104d1565b005b61014f600480360381019061014a9190610bd5565b610577565b604051610160959493929190610e16565b60405180910390f35b6101716106d3565b60405161017e9190610faa565b60405180910390f35b60015481565b60015f81548092919061019f90610ff7565b91905055506040518060a0016040528060015481526020018481526020018273ffffffffffffffffffffffffffffffffffffffff1681526020016040518060400160405280600781526020017f53746f70706564000000000000000000000000000000000000000000000000008152508152602001838152505f8060015481526020019081526020015f205f820151815f015560208201518160010190816102479190611238565b506040820151816002015f6101000a81548173ffffffffffffffffffffffffffffffffffffffff021916908373ffffffffffffffffffffffffffffffffffffffff16021790555060608201518160030190816102a39190611238565b50608082015181600401559050507f9cf4a1caaa8beb84dc25ce51ab2ef2848f1ed2fda2740af7820c20694e718bc16001548483856040516102e89493929190611351565b60405180910390a1505050565b5f808211801561030757506001548211155b9050919050565b610316610925565b5f805f60018561032691906113ae565b81526020019081526020015f206040518060a00160405290815f82015481526020016001820180546103579061106b565b80601f01602080910402602001604051908101604052809291908181526020018280546103839061106b565b80156103ce5780601f106103a5576101008083540402835291602001916103ce565b820191905f5260205f20905b8154815290600101906020018083116103b157829003601f168201915b50505050508152602001600282015f9054906101000a900473ffffffffffffffffffffffffffffffffffffffff1673ffffffffffffffffffffffffffffffffffffffff1673ffffffffffffffffffffffffffffffffffffffff16815260200160038201805461043c9061106b565b80601f01602080910402602001604051908101604052809291908181526020018280546104689061106b565b80156104b35780601f1061048a576101008083540402835291602001916104b3565b820191905f5260205f20905b81548152906001019060200180831161049657829003601f168201915b50505050508152602001600482015481525050905080915050919050565b6104da826102f5565b610519576040517f08c379a00000000000000000000000000000000000000000000000000000000081526004016105109061142b565b60405180910390fd5b805f808481526020019081526020015f2060030190816105399190611238565b507f52e5c51dff44989062106ce0e9d548a0be6cc644b50729e86c661480460fef6e828260405161056b929190611449565b60405180910390a15050565b5f602052805f5260405f205f91509050805f01549080600101805461059b9061106b565b80601f01602080910402602001604051908101604052809291908181526020018280546105c79061106b565b80156106125780601f106105e957610100808354040283529160200191610612565b820191905f5260205f20905b8154815290600101906020018083116105f557829003601f168201915b505050505090806002015f9054906101000a900473ffffffffffffffffffffffffffffffffffffffff169080600301805461064c9061106b565b80601f01602080910402602001604051908101604052809291908181526020018280546106789061106b565b80156106c35780601f1061069a576101008083540402835291602001916106c3565b820191905f5260205f20905b8154815290600101906020018083116106a657829003601f168201915b5050505050908060040154905085565b60605f60015467ffffffffffffffff8111156106f2576106f16109c1565b5b60405190808252806020026020018201604052801561072b57816020015b610718610925565b8152602001906001900390816107105790505b5090505f600190505b600154811161091d575f808281526020019081526020015f206040518060a00160405290815f82015481526020016001820180546107719061106b565b80601f016020809104026020016040519081016040528092919081815260200182805461079d9061106b565b80156107e85780601f106107bf576101008083540402835291602001916107e8565b820191905f5260205f20905b8154815290600101906020018083116107cb57829003601f168201915b50505050508152602001600282015f9054906101000a900473ffffffffffffffffffffffffffffffffffffffff1673ffffffffffffffffffffffffffffffffffffffff1673ffffffffffffffffffffffffffffffffffffffff1681526020016003820180546108569061106b565b80601f01602080910402602001604051908101604052809291908181526020018280546108829061106b565b80156108cd5780601f106108a4576101008083540402835291602001916108cd565b820191905f5260205f20905b8154815290600101906020018083116108b057829003601f168201915b50505050508152602001600482015481525050826001836108ee91906113ae565b815181106108ff576108fe611477565b5b6020026020010181905250808061091590610ff7565b915050610734565b508091505090565b6040518060a001604052805f8152602001606081526020015f73ffffffffffffffffffffffffffffffffffffffff168152602001606081526020015f81525090565b5f819050919050565b61097981610967565b82525050565b5f6020820190506109925f830184610970565b92915050565b5f604051905090565b5f80fd5b5f80fd5b5f80fd5b5f80fd5b5f601f19601f8301169050919050565b7f4e487b71000000000000000000000000000000000000000000000000000000005f52604160045260245ffd5b6109f7826109b1565b810181811067ffffffffffffffff82111715610a1657610a156109c1565b5b80604052505050565b5f610a28610998565b9050610a3482826109ee565b919050565b5f67ffffffffffffffff821115610a5357610a526109c1565b5b610a5c826109b1565b9050602081019050919050565b828183375f83830152505050565b5f610a89610a8484610a39565b610a1f565b905082815260208101848484011115610aa557610aa46109ad565b5b610ab0848285610a69565b509392505050565b5f82601f830112610acc57610acb6109a9565b5b8135610adc848260208601610a77565b91505092915050565b610aee81610967565b8114610af8575f80fd5b50565b5f81359050610b0981610ae5565b92915050565b5f73ffffffffffffffffffffffffffffffffffffffff82169050919050565b5f610b3882610b0f565b9050919050565b610b4881610b2e565b8114610b52575f80fd5b50565b5f81359050610b6381610b3f565b92915050565b5f805f60608486031215610b8057610b7f6109a1565b5b5f84013567ffffffffffffffff811115610b9d57610b9c6109a5565b5b610ba986828701610ab8565b9350506020610bba86828701610afb565b9250506040610bcb86828701610b55565b9150509250925092565b5f60208284031215610bea57610be96109a1565b5b5f610bf784828501610afb565b91505092915050565b5f8115159050919050565b610c1481610c00565b82525050565b5f602082019050610c2d5f830184610c0b565b92915050565b610c3c81610967565b82525050565b5f81519050919050565b5f82825260208201905092915050565b5f5b83811015610c79578082015181840152602081019050610c5e565b5f8484015250505050565b5f610c8e82610c42565b610c988185610c4c565b9350610ca8818560208601610c5c565b610cb1816109b1565b840191505092915050565b610cc581610b2e565b82525050565b5f60a083015f830151610ce05f860182610c33565b5060208301518482036020860152610cf88282610c84565b9150506040830151610d0d6040860182610cbc565b5060608301518482036060860152610d258282610c84565b9150506080830151610d3a6080860182610c33565b508091505092915050565b5f6020820190508181035f830152610d5d8184610ccb565b905092915050565b5f8060408385031215610d7b57610d7a6109a1565b5b5f610d8885828601610afb565b925050602083013567ffffffffffffffff811115610da957610da86109a5565b5b610db585828601610ab8565b9150509250929050565b5f82825260208201905092915050565b5f610dd982610c42565b610de38185610dbf565b9350610df3818560208601610c5c565b610dfc816109b1565b840191505092915050565b610e1081610b2e565b82525050565b5f60a082019050610e295f830188610970565b8181036020830152610e3b8187610dcf565b9050610e4a6040830186610e07565b8181036060830152610e5c8185610dcf565b9050610e6b6080830184610970565b9695505050505050565b5f81519050919050565b5f82825260208201905092915050565b5f819050602082019050919050565b5f60a083015f830151610eb35f860182610c33565b5060208301518482036020860152610ecb8282610c84565b9150506040830151610ee06040860182610cbc565b5060608301518482036060860152610ef88282610c84565b9150506080830151610f0d6080860182610c33565b508091505092915050565b5f610f238383610e9e565b905092915050565b5f602082019050919050565b5f610f4182610e75565b610f4b8185610e7f565b935083602082028501610f5d85610e8f565b805f5b85811015610f985784840389528151610f798582610f18565b9450610f8483610f2b565b925060208a01995050600181019050610f60565b50829750879550505050505092915050565b5f6020820190508181035f830152610fc28184610f37565b905092915050565b7f4e487b71000000000000000000000000000000000000000000000000000000005f52601160045260245ffd5b5f61100182610967565b91507fffffffffffffffffffffffffffffffffffffffffffffffffffffffffffffffff820361103357611032610fca565b5b600182019050919050565b7f4e487b71000000000000000000000000000000000000000000000000000000005f52602260045260245ffd5b5f600282049050600182168061108257607f821691505b6020821081036110955761109461103e565b5b50919050565b5f819050815f5260205f209050919050565b5f6020601f8301049050919050565b5f82821b905092915050565b5f600883026110f77fffffffffffffffffffffffffffffffffffffffffffffffffffffffffffffffff826110bc565b61110186836110bc565b95508019841693508086168417925050509392505050565b5f819050919050565b5f61113c61113761113284610967565b611119565b610967565b9050919050565b5f819050919050565b61115583611122565b61116961116182611143565b8484546110c8565b825550505050565b5f90565b61117d611171565b61118881848461114c565b505050565b5b818110156111ab576111a05f82611175565b60018101905061118e565b5050565b601f8211156111f0576111c18161109b565b6111ca846110ad565b810160208510156111d9578190505b6111ed6111e5856110ad565b83018261118d565b50505b505050565b5f82821c905092915050565b5f6112105f19846008026111f5565b1980831691505092915050565b5f6112288383611201565b9150826002028217905092915050565b61124182610c42565b67ffffffffffffffff81111561125a576112596109c1565b5b611264825461106b565b61126f8282856111af565b5f60209050601f8311600181146112a0575f841561128e578287015190505b611298858261121d565b8655506112ff565b601f1984166112ae8661109b565b5f5b828110156112d5578489015182556001820191506020850194506020810190506112b0565b868310156112f257848901516112ee601f891682611201565b8355505b6001600288020188555050505b505050505050565b7f53746f70706564000000000000000000000000000000000000000000000000005f82015250565b5f61133b600783610dbf565b915061134682611307565b602082019050919050565b5f60a0820190506113645f830187610970565b81810360208301526113768186610dcf565b90506113856040830185610e07565b81810360608301526113968161132f565b90506113a56080830184610970565b95945050505050565b5f6113b882610967565b91506113c383610967565b92508282039050818111156113db576113da610fca565b5b92915050565b7f45717569706d656e7420646f6573206e6f7420657869737400000000000000005f82015250565b5f611415601883610dbf565b9150611420826113e1565b602082019050919050565b5f6020820190508181035f83015261144281611409565b9050919050565b5f60408201905061145c5f830185610970565b818103602083015261146e8184610dcf565b90509392505050565b7f4e487b71000000000000000000000000000000000000000000000000000000005f52603260045260245ffdfea2646970667358221220392c69cf1b22c9878c077acb0fbcd68609186caf7c942854e9a02877b8e7173b64736f6c63430008150033",
  "immutableReferences": {},
  "source": "// SPDX-License-Identifier: MIT\r\npragma solidity ^0.8.0;\r\n\r\ncontract Equipments {\r\n    struct Equipment {\r\n        uint256 equipmentId;\r\n        string equipmentName;\r\n        address userAddress;\r\n        string state;\r\n        uint256 productId;\r\n    }\r\n\r\n    mapping(uint256 => Equipment) public equipments;\r\n    uint256 public equipmentCount;\r\n\r\n    event EquipmentAdded(\r\n        uint256 equipmentId,\r\n        string equipmentName,\r\n        address userAddress,\r\n        string state,\r\n        uint256 productId\r\n    );\r\n\r\n    event EquipmentStateChanged(uint256 equipmentId, string newState);\r\n    function addEquipment(\r\n        string memory _equipmentName,\r\n        uint256 _productId,\r\n        address _userAddress\r\n    ) external {\r\n        equipmentCount++;\r\n        equipments[equipmentCount] = Equipment(\r\n            equipmentCount,\r\n            _equipmentName,\r\n            _userAddress,\r\n            \"Stopped\",\r\n            _productId\r\n        );\r\n        emit EquipmentAdded(\r\n            equipmentCount,\r\n            _equipmentName,\r\n            _userAddress,\r\n            \"Stopped\",\r\n            _productId\r\n        );\r\n    }\r\n\r\n    function equipmentExists(uint256 _equipmentId) public view returns (bool) {\r\n        return _equipmentId > 0 && _equipmentId <= equipmentCount;\r\n    }\r\n\r\n    function getAllEquipments() external view returns (Equipment[] memory) {\r\n        Equipment[] memory allEquipments = new Equipment[](equipmentCount);\r\n        for (uint256 i = 1; i <= equipmentCount; i++) {\r\n            allEquipments[i - 1] = equipments[i];\r\n        }\r\n        return allEquipments;\r\n    }\r\n\r\n    function getEquipmentById(\r\n        uint256 _equipmentId\r\n    ) public view returns (Equipment memory) {\r\n        Equipment memory equipment = equipments[_equipmentId - 1];\r\n        return equipment;\r\n    }\r\n\r\n    function changeEquipmentState(\r\n        uint256 _equipmentId,\r\n        string memory _newState\r\n    ) public {\r\n        require(equipmentExists(_equipmentId), \"Equipment does not exist\");\r\n        equipments[_equipmentId].state = _newState;\r\n        emit EquipmentStateChanged(_equipmentId, _newState);\r\n    }\r\n}\r\n",
  "sourcePath": "D:\\BlockChain Projects\\factory full\\factroryreact\\blockchain\\contracts\\3_Equipments.sol",
  "compiler": {
    "name": "solc",
    "version": "0.8.21+commit.d9974bed.Emscripten.clang"
  },
  "schemaVersion": "3.4.16",
  "updatedAt": "2024-04-07T14:48:26.204Z",
  "networkType": "ethereum",
  "devdoc": {
    "kind": "dev",
    "methods": {},
    "version": 1
  },
  "userdoc": {
    "kind": "user",
    "methods": {},
    "version": 1
  }
}