{
  "contractName": "Factory",
  "abi": [
    {
      "anonymous": false,
      "inputs": [
        {
          "indexed": false,
          "internalType": "uint256",
          "name": "factoryId",
          "type": "uint256"
        },
        {
          "indexed": false,
          "internalType": "uint256",
          "name": "userId",
          "type": "uint256"
        },
        {
          "indexed": false,
          "internalType": "string",
          "name": "factoryName",
          "type": "string"
        }
      ],
      "name": "FactoryAdded",
      "type": "event"
    },
    {
      "inputs": [
        {
          "internalType": "uint256",
          "name": "",
          "type": "uint256"
        }
      ],
      "name": "factories",
      "outputs": [
        {
          "internalType": "uint256",
          "name": "factoryId",
          "type": "uint256"
        },
        {
          "internalType": "uint256",
          "name": "userId",
          "type": "uint256"
        },
        {
          "internalType": "string",
          "name": "factoryName",
          "type": "string"
        }
      ],
      "stateMutability": "view",
      "type": "function",
      "constant": true
    },
    {
      "inputs": [],
      "name": "factoryCount",
      "outputs": [
        {
          "internalType": "uint256",
          "name": "",
          "type": "uint256"
        }
      ],
      "stateMutability": "view",
      "type": "function",
      "constant": true
    },
    {
      "inputs": [
        {
          "internalType": "uint256",
          "name": "_userId",
          "type": "uint256"
        },
        {
          "internalType": "string",
          "name": "_factoryName",
          "type": "string"
        }
      ],
      "name": "addFactory",
      "outputs": [],
      "stateMutability": "nonpayable",
      "type": "function"
    },
    {
      "inputs": [
        {
          "internalType": "uint256",
          "name": "_userId",
          "type": "uint256"
        }
      ],
      "name": "getAllFactories",
      "outputs": [
        {
          "components": [
            {
              "internalType": "uint256",
              "name": "factoryId",
              "type": "uint256"
            },
            {
              "internalType": "uint256",
              "name": "userId",
              "type": "uint256"
            },
            {
              "internalType": "string",
              "name": "factoryName",
              "type": "string"
            }
          ],
          "internalType": "struct Factory.FactoryData[]",
          "name": "",
          "type": "tuple[]"
        }
      ],
      "stateMutability": "view",
      "type": "function",
      "constant": true
    },
    {
      "inputs": [
        {
          "internalType": "uint256",
          "name": "_factoryId",
          "type": "uint256"
        }
      ],
      "name": "getFactoryById",
      "outputs": [
        {
          "components": [
            {
              "internalType": "uint256",
              "name": "factoryId",
              "type": "uint256"
            },
            {
              "internalType": "uint256",
              "name": "userId",
              "type": "uint256"
            },
            {
              "internalType": "string",
              "name": "factoryName",
              "type": "string"
            }
          ],
          "internalType": "struct Factory.FactoryData",
          "name": "",
          "type": "tuple"
        }
      ],
      "stateMutability": "view",
      "type": "function",
      "constant": true
    },
    {
      "inputs": [
        {
          "internalType": "uint256",
          "name": "_factoryId",
          "type": "uint256"
        }
      ],
      "name": "isFactoryExists",
      "outputs": [
        {
          "internalType": "bool",
          "name": "",
          "type": "bool"
        }
      ],
      "stateMutability": "view",
      "type": "function",
      "constant": true
    }
  ],
  "bytecode": "0x608060405234801561000f575f80fd5b50610eb08061001d5f395ff3fe608060405234801561000f575f80fd5b5060043610610060575f3560e01c8063062ff1bc14610064578063672383c4146100945780638683f039146100c657806391415787146100f6578063ae821f2a14610126578063cc805afa14610142575b5f80fd5b61007e600480360381019061007991906105ea565b610160565b60405161008b91906106fb565b60405180910390f35b6100ae60048036038101906100a991906105ea565b61027d565b6040516100bd93929190610772565b60405180910390f35b6100e060048036038101906100db91906105ea565b610328565b6040516100ed91906107c8565b60405180910390f35b610110600480360381019061010b91906105ea565b610341565b60405161011d91906108e9565b60405180910390f35b610140600480360381019061013b9190610a35565b6104cf565b005b61014a610581565b6040516101579190610a8f565b60405180910390f35b610168610587565b5f8211801561017957506001548211155b6101b8576040517f08c379a00000000000000000000000000000000000000000000000000000000081526004016101af90610af2565b60405180910390fd5b5f808381526020019081526020015f206040518060600160405290815f8201548152602001600182015481526020016002820180546101f690610b3d565b80601f016020809104026020016040519081016040528092919081815260200182805461022290610b3d565b801561026d5780601f106102445761010080835404028352916020019161026d565b820191905f5260205f20905b81548152906001019060200180831161025057829003601f168201915b5050505050815250509050919050565b5f602052805f5260405f205f91509050805f0154908060010154908060020180546102a790610b3d565b80601f01602080910402602001604051908101604052809291908181526020018280546102d390610b3d565b801561031e5780601f106102f55761010080835404028352916020019161031e565b820191905f5260205f20905b81548152906001019060200180831161030157829003601f168201915b5050505050905083565b5f808211801561033a57506001548211155b9050919050565b60605f60015467ffffffffffffffff8111156103605761035f610911565b5b60405190808252806020026020018201604052801561039957816020015b610386610587565b81526020019060019003908161037e5790505b5090505f80600190505b60015481116104c457845f808381526020019081526020015f2060010154036104b1575f808281526020019081526020015f206040518060600160405290815f82015481526020016001820154815260200160028201805461040490610b3d565b80601f016020809104026020016040519081016040528092919081815260200182805461043090610b3d565b801561047b5780601f106104525761010080835404028352916020019161047b565b820191905f5260205f20905b81548152906001019060200180831161045e57829003601f168201915b50505050508152505083838151811061049757610496610b6d565b5b602002602001018190525081806104ad90610bc7565b9250505b80806104bc90610bc7565b9150506103a3565b508192505050919050565b60015f8154809291906104e190610bc7565b919050555060405180606001604052806001548152602001838152602001828152505f8060015481526020019081526020015f205f820151815f015560208201518160010155604082015181600201908161053c9190610dab565b509050507f7abd78f64d9b82398efd0bbf19d187f7d2546ffd01809a508f055a07eec1a06c600154838360405161057593929190610772565b60405180910390a15050565b60015481565b60405180606001604052805f81526020015f8152602001606081525090565b5f604051905090565b5f80fd5b5f80fd5b5f819050919050565b6105c9816105b7565b81146105d3575f80fd5b50565b5f813590506105e4816105c0565b92915050565b5f602082840312156105ff576105fe6105af565b5b5f61060c848285016105d6565b91505092915050565b61061e816105b7565b82525050565b5f81519050919050565b5f82825260208201905092915050565b5f5b8381101561065b578082015181840152602081019050610640565b5f8484015250505050565b5f601f19601f8301169050919050565b5f61068082610624565b61068a818561062e565b935061069a81856020860161063e565b6106a381610666565b840191505092915050565b5f606083015f8301516106c35f860182610615565b5060208301516106d66020860182610615565b50604083015184820360408601526106ee8282610676565b9150508091505092915050565b5f6020820190508181035f83015261071381846106ae565b905092915050565b610724816105b7565b82525050565b5f82825260208201905092915050565b5f61074482610624565b61074e818561072a565b935061075e81856020860161063e565b61076781610666565b840191505092915050565b5f6060820190506107855f83018661071b565b610792602083018561071b565b81810360408301526107a4818461073a565b9050949350505050565b5f8115159050919050565b6107c2816107ae565b82525050565b5f6020820190506107db5f8301846107b9565b92915050565b5f81519050919050565b5f82825260208201905092915050565b5f819050602082019050919050565b5f606083015f83015161081f5f860182610615565b5060208301516108326020860182610615565b506040830151848203604086015261084a8282610676565b9150508091505092915050565b5f610862838361080a565b905092915050565b5f602082019050919050565b5f610880826107e1565b61088a81856107eb565b93508360208202850161089c856107fb565b805f5b858110156108d757848403895281516108b88582610857565b94506108c38361086a565b925060208a0199505060018101905061089f565b50829750879550505050505092915050565b5f6020820190508181035f8301526109018184610876565b905092915050565b5f80fd5b5f80fd5b7f4e487b71000000000000000000000000000000000000000000000000000000005f52604160045260245ffd5b61094782610666565b810181811067ffffffffffffffff8211171561096657610965610911565b5b80604052505050565b5f6109786105a6565b9050610984828261093e565b919050565b5f67ffffffffffffffff8211156109a3576109a2610911565b5b6109ac82610666565b9050602081019050919050565b828183375f83830152505050565b5f6109d96109d484610989565b61096f565b9050828152602081018484840111156109f5576109f461090d565b5b610a008482856109b9565b509392505050565b5f82601f830112610a1c57610a1b610909565b5b8135610a2c8482602086016109c7565b91505092915050565b5f8060408385031215610a4b57610a4a6105af565b5b5f610a58858286016105d6565b925050602083013567ffffffffffffffff811115610a7957610a786105b3565b5b610a8585828601610a08565b9150509250929050565b5f602082019050610aa25f83018461071b565b92915050565b7f466163746f727920646f6573206e6f74206578697374000000000000000000005f82015250565b5f610adc60168361072a565b9150610ae782610aa8565b602082019050919050565b5f6020820190508181035f830152610b0981610ad0565b9050919050565b7f4e487b71000000000000000000000000000000000000000000000000000000005f52602260045260245ffd5b5f6002820490506001821680610b5457607f821691505b602082108103610b6757610b66610b10565b5b50919050565b7f4e487b71000000000000000000000000000000000000000000000000000000005f52603260045260245ffd5b7f4e487b71000000000000000000000000000000000000000000000000000000005f52601160045260245ffd5b5f610bd1826105b7565b91507fffffffffffffffffffffffffffffffffffffffffffffffffffffffffffffffff8203610c0357610c02610b9a565b5b600182019050919050565b5f819050815f5260205f209050919050565b5f6020601f8301049050919050565b5f82821b905092915050565b5f60088302610c6a7fffffffffffffffffffffffffffffffffffffffffffffffffffffffffffffffff82610c2f565b610c748683610c2f565b95508019841693508086168417925050509392505050565b5f819050919050565b5f610caf610caa610ca5846105b7565b610c8c565b6105b7565b9050919050565b5f819050919050565b610cc883610c95565b610cdc610cd482610cb6565b848454610c3b565b825550505050565b5f90565b610cf0610ce4565b610cfb818484610cbf565b505050565b5b81811015610d1e57610d135f82610ce8565b600181019050610d01565b5050565b601f821115610d6357610d3481610c0e565b610d3d84610c20565b81016020851015610d4c578190505b610d60610d5885610c20565b830182610d00565b50505b505050565b5f82821c905092915050565b5f610d835f1984600802610d68565b1980831691505092915050565b5f610d9b8383610d74565b9150826002028217905092915050565b610db482610624565b67ffffffffffffffff811115610dcd57610dcc610911565b5b610dd78254610b3d565b610de2828285610d22565b5f60209050601f831160018114610e13575f8415610e01578287015190505b610e0b8582610d90565b865550610e72565b601f198416610e2186610c0e565b5f5b82811015610e4857848901518255600182019150602085019450602081019050610e23565b86831015610e655784890151610e61601f891682610d74565b8355505b6001600288020188555050505b50505050505056fea26469706673582212205c7bd22b05ae7b23941718ef8468005aeb087e85171b52551de9f80b421a994364736f6c63430008150033",
  "immutableReferences": {},
  "source": "// SPDX-License-Identifier: MIT\r\npragma solidity ^0.8.0;\r\n\r\ncontract Factory {\r\n    struct FactoryData {\r\n        uint256 factoryId;\r\n        uint256 userId;\r\n        string factoryName;\r\n    }\r\n\r\n    mapping(uint256 => FactoryData) public factories;\r\n    uint256 public factoryCount;\r\n\r\n    event FactoryAdded(uint256 factoryId, uint256 userId, string factoryName);\r\n\r\n    function addFactory(uint256 _userId, string memory _factoryName) external {\r\n        factoryCount++;\r\n        factories[factoryCount] = FactoryData(\r\n            factoryCount,\r\n            _userId,\r\n            _factoryName\r\n        );\r\n        emit FactoryAdded(factoryCount, _userId, _factoryName);\r\n    }\r\n\r\n    function getAllFactories(\r\n        uint256 _userId\r\n    ) external view returns (FactoryData[] memory) {\r\n        FactoryData[] memory allFactories = new FactoryData[](factoryCount);\r\n        uint count = 0;\r\n        for (uint256 i = 1; i <= factoryCount; i++) {\r\n            if (factories[i].userId == _userId) {\r\n                allFactories[count] = factories[i];\r\n                count++;\r\n            }\r\n        }\r\n        return allFactories;\r\n    }\r\n\r\n    function getFactoryById(\r\n        uint256 _factoryId\r\n    ) external view returns (FactoryData memory) {\r\n        require(\r\n            _factoryId > 0 && _factoryId <= factoryCount,\r\n            \"Factory does not exist\"\r\n        );\r\n        return factories[_factoryId];\r\n    }\r\n\r\n    function isFactoryExists(uint256 _factoryId) external view returns (bool) {\r\n        return (_factoryId > 0 && _factoryId <= factoryCount);\r\n    }\r\n}\r\n",
  "sourcePath": "D:\\BlockChain Projects\\factory full\\factroryreact\\blockchain\\contracts\\2_factory.sol",
  "compiler": {
    "name": "solc",
    "version": "0.8.21+commit.d9974bed.Emscripten.clang"
  },
  "schemaVersion": "3.4.16",
  "updatedAt": "2024-04-06T17:20:05.365Z",
  "networkType": "ethereum",
  "devdoc": {
    "kind": "dev",
    "methods": {},
    "version": 1
  },
  "userdoc": {
    "kind": "user",
    "methods": {},
    "version": 1
  }
}