{
  "contractName": "Orders",
  "abi": [
    {
      "anonymous": false,
      "inputs": [
        {
          "indexed": false,
          "internalType": "uint256",
          "name": "orderId",
          "type": "uint256"
        },
        {
          "indexed": false,
          "internalType": "uint256",
          "name": "productId",
          "type": "uint256"
        },
        {
          "indexed": false,
          "internalType": "uint256",
          "name": "quantity",
          "type": "uint256"
        },
        {
          "indexed": false,
          "internalType": "address",
          "name": "buyer",
          "type": "address"
        },
        {
          "indexed": false,
          "internalType": "address",
          "name": "seller",
          "type": "address"
        }
      ],
      "name": "OrderPlaced",
      "type": "event"
    },
    {
      "inputs": [],
      "name": "orderCount",
      "outputs": [
        {
          "internalType": "uint256",
          "name": "",
          "type": "uint256"
        }
      ],
      "stateMutability": "view",
      "type": "function",
      "constant": true
    },
    {
      "inputs": [
        {
          "internalType": "uint256",
          "name": "",
          "type": "uint256"
        }
      ],
      "name": "orders",
      "outputs": [
        {
          "internalType": "uint256",
          "name": "orderId",
          "type": "uint256"
        },
        {
          "internalType": "uint256",
          "name": "productId",
          "type": "uint256"
        },
        {
          "internalType": "uint256",
          "name": "quantity",
          "type": "uint256"
        },
        {
          "internalType": "address",
          "name": "buyer",
          "type": "address"
        },
        {
          "internalType": "address",
          "name": "seller",
          "type": "address"
        }
      ],
      "stateMutability": "view",
      "type": "function",
      "constant": true
    },
    {
      "inputs": [
        {
          "internalType": "uint256",
          "name": "_productId",
          "type": "uint256"
        },
        {
          "internalType": "uint256",
          "name": "_quantity",
          "type": "uint256"
        },
        {
          "internalType": "address",
          "name": "_seller",
          "type": "address"
        }
      ],
      "name": "placeOrder",
      "outputs": [
        {
          "internalType": "bool",
          "name": "",
          "type": "bool"
        }
      ],
      "stateMutability": "payable",
      "type": "function",
      "payable": true
    }
  ],
  "bytecode": "0x608060405234801561000f575f80fd5b5061062b8061001d5f395ff3fe608060405260043610610033575f3560e01c80632453ffa81461003757806335e4365f14610061578063a85c38ef14610091575b5f80fd5b348015610042575f80fd5b5061004b6100d1565b604051610058919061035a565b60405180910390f35b61007b600480360381019061007691906103fb565b6100d7565b6040516100889190610465565b60405180910390f35b34801561009c575f80fd5b506100b760048036038101906100b2919061047e565b6102d3565b6040516100c89594939291906104b8565b60405180910390f35b60015481565b5f80831161011a576040517f08c379a000000000000000000000000000000000000000000000000000000000815260040161011190610563565b60405180910390fd5b60015f81548092919061012c906105ae565b91905055506040518060a0016040528060015481526020018581526020018481526020013373ffffffffffffffffffffffffffffffffffffffff1681526020018373ffffffffffffffffffffffffffffffffffffffff168152505f8060015481526020019081526020015f205f820151815f015560208201518160010155604082015181600201556060820151816003015f6101000a81548173ffffffffffffffffffffffffffffffffffffffff021916908373ffffffffffffffffffffffffffffffffffffffff1602179055506080820151816004015f6101000a81548173ffffffffffffffffffffffffffffffffffffffff021916908373ffffffffffffffffffffffffffffffffffffffff1602179055509050508173ffffffffffffffffffffffffffffffffffffffff166108fc3490811502906040515f60405180830381858888f19350505050158015610286573d5f803e3d5ffd5b507fa0b5c911082416eea473eb1b701bfecdcbe67151ccb6a34761d47ef9ae624212600154858533866040516102c09594939291906104b8565b60405180910390a1600190509392505050565b5f602052805f5260405f205f91509050805f015490806001015490806002015490806003015f9054906101000a900473ffffffffffffffffffffffffffffffffffffffff1690806004015f9054906101000a900473ffffffffffffffffffffffffffffffffffffffff16905085565b5f819050919050565b61035481610342565b82525050565b5f60208201905061036d5f83018461034b565b92915050565b5f80fd5b61038081610342565b811461038a575f80fd5b50565b5f8135905061039b81610377565b92915050565b5f73ffffffffffffffffffffffffffffffffffffffff82169050919050565b5f6103ca826103a1565b9050919050565b6103da816103c0565b81146103e4575f80fd5b50565b5f813590506103f5816103d1565b92915050565b5f805f6060848603121561041257610411610373565b5b5f61041f8682870161038d565b93505060206104308682870161038d565b9250506040610441868287016103e7565b9150509250925092565b5f8115159050919050565b61045f8161044b565b82525050565b5f6020820190506104785f830184610456565b92915050565b5f6020828403121561049357610492610373565b5b5f6104a08482850161038d565b91505092915050565b6104b2816103c0565b82525050565b5f60a0820190506104cb5f83018861034b565b6104d8602083018761034b565b6104e5604083018661034b565b6104f260608301856104a9565b6104ff60808301846104a9565b9695505050505050565b5f82825260208201905092915050565b7f5175616e74697479206d7573742062652067726561746572207468616e2030005f82015250565b5f61054d601f83610509565b915061055882610519565b602082019050919050565b5f6020820190508181035f83015261057a81610541565b9050919050565b7f4e487b71000000000000000000000000000000000000000000000000000000005f52601160045260245ffd5b5f6105b882610342565b91507fffffffffffffffffffffffffffffffffffffffffffffffffffffffffffffffff82036105ea576105e9610581565b5b60018201905091905056fea26469706673582212202893d37d491988e86fe7868c0177f6595c754c602fcd44f5a61cd6bcba5d355164736f6c63430008150033",
  "immutableReferences": {},
  "source": "// SPDX-License-Identifier: MIT\r\npragma solidity ^0.8.0;\r\n\r\ncontract Orders {\r\n    struct Order {\r\n        uint256 orderId;\r\n        uint256 productId;\r\n        uint256 quantity;\r\n        address buyer;\r\n        address seller;\r\n    }\r\n\r\n    mapping(uint256 => Order) public orders;\r\n    uint256 public orderCount;\r\n\r\n    event OrderPlaced(\r\n        uint256 orderId,\r\n        uint256 productId,\r\n        uint256 quantity,\r\n        address buyer,\r\n        address seller\r\n    );\r\n\r\n    function placeOrder(\r\n        uint256 _productId,\r\n        uint256 _quantity,\r\n        address _seller\r\n    ) external payable returns (bool) {\r\n        require(_quantity > 0, \"Quantity must be greater than 0\");\r\n        orderCount++;\r\n        orders[orderCount] = Order(\r\n            orderCount,\r\n            _productId,\r\n            _quantity,\r\n            msg.sender,\r\n            _seller\r\n        );\r\n        payable(_seller).transfer(msg.value);\r\n        emit OrderPlaced(\r\n            orderCount,\r\n            _productId,\r\n            _quantity,\r\n            msg.sender,\r\n            _seller\r\n        );\r\n        return true;\r\n    }\r\n}\r\n",
  "sourcePath": "D:\\BlockChain Projects\\factory full\\factroryreact\\blockchain\\contracts\\4_Orders.sol",
  "compiler": {
    "name": "solc",
    "version": "0.8.21+commit.d9974bed.Emscripten.clang"
  },
  "schemaVersion": "3.4.16",
  "updatedAt": "2024-04-07T14:48:26.372Z",
  "networkType": "ethereum",
  "devdoc": {
    "kind": "dev",
    "methods": {},
    "version": 1
  },
  "userdoc": {
    "kind": "user",
    "methods": {},
    "version": 1
  }
}