{
  "contractName": "Products",
  "abi": [
    {
      "anonymous": false,
      "inputs": [
        {
          "indexed": false,
          "internalType": "uint256",
          "name": "productId",
          "type": "uint256"
        },
        {
          "indexed": false,
          "internalType": "string",
          "name": "productName",
          "type": "string"
        }
      ],
      "name": "ProductAdded",
      "type": "event"
    },
    {
      "inputs": [],
      "name": "productCount",
      "outputs": [
        {
          "internalType": "uint256",
          "name": "",
          "type": "uint256"
        }
      ],
      "stateMutability": "view",
      "type": "function",
      "constant": true
    },
    {
      "inputs": [
        {
          "internalType": "uint256",
          "name": "",
          "type": "uint256"
        }
      ],
      "name": "products",
      "outputs": [
        {
          "internalType": "uint256",
          "name": "productId",
          "type": "uint256"
        },
        {
          "internalType": "string",
          "name": "productName",
          "type": "string"
        },
        {
          "internalType": "uint256",
          "name": "unsoldProduction",
          "type": "uint256"
        },
        {
          "internalType": "uint256",
          "name": "totalProduction",
          "type": "uint256"
        },
        {
          "internalType": "uint256",
          "name": "soldProduction",
          "type": "uint256"
        },
        {
          "internalType": "uint256",
          "name": "price",
          "type": "uint256"
        }
      ],
      "stateMutability": "view",
      "type": "function",
      "constant": true
    },
    {
      "inputs": [
        {
          "internalType": "string",
          "name": "_productName",
          "type": "string"
        },
        {
          "internalType": "uint256",
          "name": "_price",
          "type": "uint256"
        }
      ],
      "name": "addProduct",
      "outputs": [],
      "stateMutability": "nonpayable",
      "type": "function"
    },
    {
      "inputs": [
        {
          "internalType": "uint256",
          "name": "_productId",
          "type": "uint256"
        },
        {
          "internalType": "uint256",
          "name": "_unsoldProduction",
          "type": "uint256"
        },
        {
          "internalType": "uint256",
          "name": "_totalProduction",
          "type": "uint256"
        },
        {
          "internalType": "uint256",
          "name": "_soldProduction",
          "type": "uint256"
        }
      ],
      "name": "updateProduction",
      "outputs": [],
      "stateMutability": "nonpayable",
      "type": "function"
    },
    {
      "inputs": [
        {
          "internalType": "uint256",
          "name": "_productId",
          "type": "uint256"
        }
      ],
      "name": "productExists",
      "outputs": [
        {
          "internalType": "bool",
          "name": "",
          "type": "bool"
        }
      ],
      "stateMutability": "view",
      "type": "function",
      "constant": true
    },
    {
      "inputs": [
        {
          "internalType": "uint256",
          "name": "_productId",
          "type": "uint256"
        },
        {
          "internalType": "uint256",
          "name": "_price",
          "type": "uint256"
        }
      ],
      "name": "updatePrice",
      "outputs": [],
      "stateMutability": "nonpayable",
      "type": "function"
    },
    {
      "inputs": [
        {
          "internalType": "uint256",
          "name": "_productId",
          "type": "uint256"
        }
      ],
      "name": "getProductPrice",
      "outputs": [
        {
          "internalType": "uint256",
          "name": "",
          "type": "uint256"
        }
      ],
      "stateMutability": "view",
      "type": "function",
      "constant": true
    },
    {
      "inputs": [
        {
          "internalType": "uint256",
          "name": "_productId",
          "type": "uint256"
        },
        {
          "internalType": "int256",
          "name": "_delta",
          "type": "int256"
        }
      ],
      "name": "updateUnsoldProduction",
      "outputs": [],
      "stateMutability": "nonpayable",
      "type": "function"
    },
    {
      "inputs": [
        {
          "internalType": "uint256",
          "name": "_productId",
          "type": "uint256"
        },
        {
          "internalType": "uint256",
          "name": "_delta",
          "type": "uint256"
        }
      ],
      "name": "updateTotalProduction",
      "outputs": [],
      "stateMutability": "nonpayable",
      "type": "function"
    },
    {
      "inputs": [
        {
          "internalType": "uint256",
          "name": "_productId",
          "type": "uint256"
        },
        {
          "internalType": "uint256",
          "name": "_delta",
          "type": "uint256"
        }
      ],
      "name": "updateSoldProduction",
      "outputs": [],
      "stateMutability": "nonpayable",
      "type": "function"
    },
    {
      "inputs": [],
      "name": "getAllProducts",
      "outputs": [
        {
          "components": [
            {
              "internalType": "uint256",
              "name": "productId",
              "type": "uint256"
            },
            {
              "internalType": "string",
              "name": "productName",
              "type": "string"
            },
            {
              "internalType": "uint256",
              "name": "unsoldProduction",
              "type": "uint256"
            },
            {
              "internalType": "uint256",
              "name": "totalProduction",
              "type": "uint256"
            },
            {
              "internalType": "uint256",
              "name": "soldProduction",
              "type": "uint256"
            },
            {
              "internalType": "uint256",
              "name": "price",
              "type": "uint256"
            }
          ],
          "internalType": "struct Products.Product[]",
          "name": "",
          "type": "tuple[]"
        }
      ],
      "stateMutability": "view",
      "type": "function",
      "constant": true
    },
    {
      "inputs": [
        {
          "internalType": "uint256",
          "name": "_productId",
          "type": "uint256"
        }
      ],
      "name": "getProductById",
      "outputs": [
        {
          "components": [
            {
              "internalType": "uint256",
              "name": "productId",
              "type": "uint256"
            },
            {
              "internalType": "string",
              "name": "productName",
              "type": "string"
            },
            {
              "internalType": "uint256",
              "name": "unsoldProduction",
              "type": "uint256"
            },
            {
              "internalType": "uint256",
              "name": "totalProduction",
              "type": "uint256"
            },
            {
              "internalType": "uint256",
              "name": "soldProduction",
              "type": "uint256"
            },
            {
              "internalType": "uint256",
              "name": "price",
              "type": "uint256"
            }
          ],
          "internalType": "struct Products.Product",
          "name": "",
          "type": "tuple"
        }
      ],
      "stateMutability": "view",
      "type": "function",
      "constant": true
    }
  ],
  "bytecode": "0x608060405234801561000f575f80fd5b506114b18061001d5f395ff3fe608060405234801561000f575f80fd5b50600436106100b2575f3560e01c806394bf72871161006f57806394bf72871461018d578063af55ed64146101a9578063afe05580146101d9578063b15247d9146101f5578063e0f6ef8714610211578063e7bf7dfc1461022f576100b2565b806302ee3a52146100b6578063093fb6fc146100d45780633f70c2b4146100f0578063720a534e146101205780637acc0b201461013c57806382367b2d14610171575b5f80fd5b6100be61025f565b6040516100cb9190610a99565b60405180910390f35b6100ee60048036038101906100e99190610b27565b6103ea565b005b61010a60048036038101906101059190610b65565b610481565b6040516101179190610c16565b60405180910390f35b61013a60048036038101906101359190610c36565b610578565b005b61015660048036038101906101519190610b65565b6105f2565b60405161016896959493929190610cf1565b60405180910390f35b61018b60048036038101906101869190610d57565b6106af565b005b6101a760048036038101906101a29190610d57565b610710565b005b6101c360048036038101906101be9190610b65565b61073d565b6040516101d09190610daf565b60405180910390f35b6101f360048036038101906101ee9190610d57565b610756565b005b61020f600480360381019061020a9190610ef4565b610783565b005b610219610863565b6040516102269190610f4e565b60405180910390f35b61024960048036038101906102449190610b65565b610869565b6040516102569190610f4e565b60405180910390f35b60605f60015467ffffffffffffffff81111561027e5761027d610dd0565b5b6040519080825280602002602001820160405280156102b757816020015b6102a4610885565b81526020019060019003908161029c5790505b5090505f600190505b60015481116103e2575f808281526020019081526020015f206040518060c00160405290815f82015481526020016001820180546102fd90610f94565b80601f016020809104026020016040519081016040528092919081815260200182805461032990610f94565b80156103745780601f1061034b57610100808354040283529160200191610374565b820191905f5260205f20905b81548152906001019060200180831161035757829003601f168201915b50505050508152602001600282015481526020016003820154815260200160048201548152602001600582015481525050826001836103b39190610ff1565b815181106103c4576103c3611024565b5b602002602001018190525080806103da90611051565b9150506102c0565b508091505090565b5f811215806104155750806103fe90611098565b5f808481526020019081526020015f206002015410155b610454576040517f08c379a000000000000000000000000000000000000000000000000000000000815260040161044b90611128565b60405180910390fd5b805f808481526020019081526020015f206002015f8282546104769190611146565b925050819055505050565b610489610885565b5f806001846104989190610ff1565b81526020019081526020015f206040518060c00160405290815f82015481526020016001820180546104c990610f94565b80601f01602080910402602001604051908101604052809291908181526020018280546104f590610f94565b80156105405780601f1061051757610100808354040283529160200191610540565b820191905f5260205f20905b81548152906001019060200180831161052357829003601f168201915b505050505081526020016002820154815260200160038201548152602001600482015481526020016005820154815250509050919050565b6001548411156105bd576040517f08c379a00000000000000000000000000000000000000000000000000000000081526004016105b4906111c3565b60405180910390fd5b5f805f8681526020019081526020015f2090508381600201819055508281600301819055508181600401819055505050505050565b5f602052805f5260405f205f91509050805f01549080600101805461061690610f94565b80601f016020809104026020016040519081016040528092919081815260200182805461064290610f94565b801561068d5780601f106106645761010080835404028352916020019161068d565b820191905f5260205f20905b81548152906001019060200180831161067057829003601f168201915b5050505050908060020154908060030154908060040154908060050154905086565b6001548211156106f4576040517f08c379a00000000000000000000000000000000000000000000000000000000081526004016106eb906111c3565b60405180910390fd5b805f808481526020019081526020015f20600501819055505050565b805f808481526020019081526020015f206004015f8282546107329190611146565b925050819055505050565b5f808211801561074f57506001548211155b9050919050565b805f808481526020019081526020015f206003015f8282546107789190611146565b925050819055505050565b60015f81548092919061079590611051565b91905055506040518060c0016040528060015481526020018381526020015f81526020015f81526020015f8152602001828152505f8060015481526020019081526020015f205f820151815f015560208201518160010190816107f8919061137e565b5060408201518160020155606082015181600301556080820151816004015560a082015181600501559050507f259101de1f87b04b9ee0332ce5e3cc508014004bf283424aead6cd8692f5cf986001548360405161085792919061144d565b60405180910390a15050565b60015481565b5f805f8381526020019081526020015f20600501549050919050565b6040518060c001604052805f8152602001606081526020015f81526020015f81526020015f81526020015f81525090565b5f81519050919050565b5f82825260208201905092915050565b5f819050602082019050919050565b5f819050919050565b6108f1816108df565b82525050565b5f81519050919050565b5f82825260208201905092915050565b5f5b8381101561092e578082015181840152602081019050610913565b5f8484015250505050565b5f601f19601f8301169050919050565b5f610953826108f7565b61095d8185610901565b935061096d818560208601610911565b61097681610939565b840191505092915050565b5f60c083015f8301516109965f8601826108e8565b50602083015184820360208601526109ae8282610949565b91505060408301516109c360408601826108e8565b5060608301516109d660608601826108e8565b5060808301516109e960808601826108e8565b5060a08301516109fc60a08601826108e8565b508091505092915050565b5f610a128383610981565b905092915050565b5f602082019050919050565b5f610a30826108b6565b610a3a81856108c0565b935083602082028501610a4c856108d0565b805f5b85811015610a875784840389528151610a688582610a07565b9450610a7383610a1a565b925060208a01995050600181019050610a4f565b50829750879550505050505092915050565b5f6020820190508181035f830152610ab18184610a26565b905092915050565b5f604051905090565b5f80fd5b5f80fd5b610ad3816108df565b8114610add575f80fd5b50565b5f81359050610aee81610aca565b92915050565b5f819050919050565b610b0681610af4565b8114610b10575f80fd5b50565b5f81359050610b2181610afd565b92915050565b5f8060408385031215610b3d57610b3c610ac2565b5b5f610b4a85828601610ae0565b9250506020610b5b85828601610b13565b9150509250929050565b5f60208284031215610b7a57610b79610ac2565b5b5f610b8784828501610ae0565b91505092915050565b5f60c083015f830151610ba55f8601826108e8565b5060208301518482036020860152610bbd8282610949565b9150506040830151610bd260408601826108e8565b506060830151610be560608601826108e8565b506080830151610bf860808601826108e8565b5060a0830151610c0b60a08601826108e8565b508091505092915050565b5f6020820190508181035f830152610c2e8184610b90565b905092915050565b5f805f8060808587031215610c4e57610c4d610ac2565b5b5f610c5b87828801610ae0565b9450506020610c6c87828801610ae0565b9350506040610c7d87828801610ae0565b9250506060610c8e87828801610ae0565b91505092959194509250565b610ca3816108df565b82525050565b5f82825260208201905092915050565b5f610cc3826108f7565b610ccd8185610ca9565b9350610cdd818560208601610911565b610ce681610939565b840191505092915050565b5f60c082019050610d045f830189610c9a565b8181036020830152610d168188610cb9565b9050610d256040830187610c9a565b610d326060830186610c9a565b610d3f6080830185610c9a565b610d4c60a0830184610c9a565b979650505050505050565b5f8060408385031215610d6d57610d6c610ac2565b5b5f610d7a85828601610ae0565b9250506020610d8b85828601610ae0565b9150509250929050565b5f8115159050919050565b610da981610d95565b82525050565b5f602082019050610dc25f830184610da0565b92915050565b5f80fd5b5f80fd5b7f4e487b71000000000000000000000000000000000000000000000000000000005f52604160045260245ffd5b610e0682610939565b810181811067ffffffffffffffff82111715610e2557610e24610dd0565b5b80604052505050565b5f610e37610ab9565b9050610e438282610dfd565b919050565b5f67ffffffffffffffff821115610e6257610e61610dd0565b5b610e6b82610939565b9050602081019050919050565b828183375f83830152505050565b5f610e98610e9384610e48565b610e2e565b905082815260208101848484011115610eb457610eb3610dcc565b5b610ebf848285610e78565b509392505050565b5f82601f830112610edb57610eda610dc8565b5b8135610eeb848260208601610e86565b91505092915050565b5f8060408385031215610f0a57610f09610ac2565b5b5f83013567ffffffffffffffff811115610f2757610f26610ac6565b5b610f3385828601610ec7565b9250506020610f4485828601610ae0565b9150509250929050565b5f602082019050610f615f830184610c9a565b92915050565b7f4e487b71000000000000000000000000000000000000000000000000000000005f52602260045260245ffd5b5f6002820490506001821680610fab57607f821691505b602082108103610fbe57610fbd610f67565b5b50919050565b7f4e487b71000000000000000000000000000000000000000000000000000000005f52601160045260245ffd5b5f610ffb826108df565b9150611006836108df565b925082820390508181111561101e5761101d610fc4565b5b92915050565b7f4e487b71000000000000000000000000000000000000000000000000000000005f52603260045260245ffd5b5f61105b826108df565b91507fffffffffffffffffffffffffffffffffffffffffffffffffffffffffffffffff820361108d5761108c610fc4565b5b600182019050919050565b5f6110a282610af4565b91507f800000000000000000000000000000000000000000000000000000000000000082036110d4576110d3610fc4565b5b815f039050919050565b7f496e73756666696369656e7420756e736f6c642070726f64756374696f6e00005f82015250565b5f611112601e83610ca9565b915061111d826110de565b602082019050919050565b5f6020820190508181035f83015261113f81611106565b9050919050565b5f611150826108df565b915061115b836108df565b925082820190508082111561117357611172610fc4565b5b92915050565b7f496e76616c69642050726f6475637420494400000000000000000000000000005f82015250565b5f6111ad601283610ca9565b91506111b882611179565b602082019050919050565b5f6020820190508181035f8301526111da816111a1565b9050919050565b5f819050815f5260205f209050919050565b5f6020601f8301049050919050565b5f82821b905092915050565b5f6008830261123d7fffffffffffffffffffffffffffffffffffffffffffffffffffffffffffffffff82611202565b6112478683611202565b95508019841693508086168417925050509392505050565b5f819050919050565b5f61128261127d611278846108df565b61125f565b6108df565b9050919050565b5f819050919050565b61129b83611268565b6112af6112a782611289565b84845461120e565b825550505050565b5f90565b6112c36112b7565b6112ce818484611292565b505050565b5b818110156112f1576112e65f826112bb565b6001810190506112d4565b5050565b601f82111561133657611307816111e1565b611310846111f3565b8101602085101561131f578190505b61133361132b856111f3565b8301826112d3565b50505b505050565b5f82821c905092915050565b5f6113565f198460080261133b565b1980831691505092915050565b5f61136e8383611347565b9150826002028217905092915050565b611387826108f7565b67ffffffffffffffff8111156113a05761139f610dd0565b5b6113aa8254610f94565b6113b58282856112f5565b5f60209050601f8311600181146113e6575f84156113d4578287015190505b6113de8582611363565b865550611445565b601f1984166113f4866111e1565b5f5b8281101561141b578489015182556001820191506020850194506020810190506113f6565b868310156114385784890151611434601f891682611347565b8355505b6001600288020188555050505b505050505050565b5f6040820190506114605f830185610c9a565b81810360208301526114728184610cb9565b9050939250505056fea26469706673582212201f40a98f34d2ef68b64ad66fd0b60a7a625823cc5119043f0b2ae001a07d541f64736f6c63430008150033",
  "immutableReferences": {},
  "source": "// SPDX-License-Identifier: MIT\r\npragma solidity ^0.8.0;\r\n\r\ncontract Products {\r\n    struct Product {\r\n        uint256 productId;\r\n        string productName;\r\n        uint256 unsoldProduction;\r\n        uint256 totalProduction;\r\n        uint256 soldProduction;\r\n        uint256 price;\r\n    }\r\n\r\n    mapping(uint256 => Product) public products;\r\n    uint256 public productCount;\r\n\r\n    event ProductAdded(uint256 productId, string productName);\r\n\r\n    function addProduct(string memory _productName, uint256 _price) external {\r\n        productCount++;\r\n        products[productCount] = Product(\r\n            productCount,\r\n            _productName,\r\n            0,\r\n            0,\r\n            0,\r\n            _price\r\n        );\r\n        emit ProductAdded(productCount, _productName);\r\n    }\r\n\r\n    function updateProduction(\r\n        uint256 _productId,\r\n        uint256 _unsoldProduction,\r\n        uint256 _totalProduction,\r\n        uint256 _soldProduction\r\n    ) external {\r\n        require(_productId <= productCount, \"Invalid Product ID\");\r\n        Product storage product = products[_productId];\r\n        product.unsoldProduction = _unsoldProduction;\r\n        product.totalProduction = _totalProduction;\r\n        product.soldProduction = _soldProduction;\r\n    }\r\n\r\n    function productExists(uint256 _productId) public view returns (bool) {\r\n        return _productId > 0 && _productId <= productCount;\r\n    }\r\n\r\n    function updatePrice(uint256 _productId, uint256 _price) external {\r\n        require(_productId <= productCount, \"Invalid Product ID\");\r\n        products[_productId].price = _price;\r\n    }\r\n\r\n    function getProductPrice(uint256 _productId)\r\n        external\r\n        view\r\n        returns (uint256)\r\n    {\r\n        return products[_productId].price;\r\n    }\r\n\r\n    function updateUnsoldProduction(uint256 _productId, int256 _delta)\r\n        external\r\n    {\r\n        require(\r\n            _delta >= 0 ||\r\n                products[_productId].unsoldProduction >= uint256(-_delta),\r\n            \"Insufficient unsold production\"\r\n        );\r\n        products[_productId].unsoldProduction += uint256(_delta);\r\n    }\r\n\r\n    function updateTotalProduction(uint256 _productId, uint256 _delta)\r\n        external\r\n    {\r\n        products[_productId].totalProduction += _delta;\r\n    }\r\n\r\n    function updateSoldProduction(uint256 _productId, uint256 _delta) external {\r\n        products[_productId].soldProduction += _delta;\r\n    }\r\n\r\n    function getAllProducts() external view returns (Product[] memory) {\r\n        Product[] memory allProducts = new Product[](productCount);\r\n        for (uint256 i = 1; i <= productCount; i++) {\r\n            allProducts[i - 1] = products[i];\r\n        }\r\n        return allProducts;\r\n    }\r\n\r\n    function getProductById(uint256 _productId)\r\n        public\r\n        view\r\n        returns (Product memory)\r\n    {\r\n        return products[_productId - 1];\r\n    }\r\n}\r\n",
  "sourcePath": "D:\\BlockChain Projects\\factory full\\factroryreact\\blockchain\\contracts\\3_Products.sol",
  "compiler": {
    "name": "solc",
    "version": "0.8.21+commit.d9974bed.Emscripten.clang"
  },
  "schemaVersion": "3.4.16",
  "updatedAt": "2024-04-06T17:20:05.709Z",
  "networkType": "ethereum",
  "devdoc": {
    "kind": "dev",
    "methods": {},
    "version": 1
  },
  "userdoc": {
    "kind": "user",
    "methods": {},
    "version": 1
  }
}