{
  "contractName": "User",
  "abi": [
    {
      "anonymous": false,
      "inputs": [
        {
          "indexed": false,
          "internalType": "uint256",
          "name": "userId",
          "type": "uint256"
        },
        {
          "indexed": false,
          "internalType": "address",
          "name": "userAddress",
          "type": "address"
        }
      ],
      "name": "UserAdded",
      "type": "event"
    },
    {
      "inputs": [],
      "name": "userCount",
      "outputs": [
        {
          "internalType": "uint256",
          "name": "",
          "type": "uint256"
        }
      ],
      "stateMutability": "view",
      "type": "function",
      "constant": true
    },
    {
      "inputs": [
        {
          "internalType": "address",
          "name": "",
          "type": "address"
        }
      ],
      "name": "userExists",
      "outputs": [
        {
          "internalType": "bool",
          "name": "",
          "type": "bool"
        }
      ],
      "stateMutability": "view",
      "type": "function",
      "constant": true
    },
    {
      "inputs": [
        {
          "internalType": "uint256",
          "name": "",
          "type": "uint256"
        }
      ],
      "name": "users",
      "outputs": [
        {
          "internalType": "uint256",
          "name": "userId",
          "type": "uint256"
        },
        {
          "internalType": "address",
          "name": "userAddress",
          "type": "address"
        }
      ],
      "stateMutability": "view",
      "type": "function",
      "constant": true
    },
    {
      "inputs": [],
      "name": "addUser",
      "outputs": [
        {
          "components": [
            {
              "internalType": "uint256",
              "name": "userId",
              "type": "uint256"
            },
            {
              "internalType": "address",
              "name": "userAddress",
              "type": "address"
            }
          ],
          "internalType": "struct User.UserData",
          "name": "newUser",
          "type": "tuple"
        }
      ],
      "stateMutability": "nonpayable",
      "type": "function"
    },
    {
      "inputs": [],
      "name": "getAllUsers",
      "outputs": [
        {
          "components": [
            {
              "internalType": "uint256",
              "name": "userId",
              "type": "uint256"
            },
            {
              "internalType": "address",
              "name": "userAddress",
              "type": "address"
            }
          ],
          "internalType": "struct User.UserData[]",
          "name": "",
          "type": "tuple[]"
        }
      ],
      "stateMutability": "view",
      "type": "function",
      "constant": true
    },
    {
      "inputs": [
        {
          "internalType": "uint256",
          "name": "_userId",
          "type": "uint256"
        }
      ],
      "name": "getUserById",
      "outputs": [
        {
          "components": [
            {
              "internalType": "uint256",
              "name": "userId",
              "type": "uint256"
            },
            {
              "internalType": "address",
              "name": "userAddress",
              "type": "address"
            }
          ],
          "internalType": "struct User.UserData",
          "name": "",
          "type": "tuple"
        }
      ],
      "stateMutability": "view",
      "type": "function",
      "constant": true
    },
    {
      "inputs": [
        {
          "internalType": "address",
          "name": "_userAddress",
          "type": "address"
        }
      ],
      "name": "isUserExist",
      "outputs": [
        {
          "internalType": "bool",
          "name": "",
          "type": "bool"
        }
      ],
      "stateMutability": "view",
      "type": "function",
      "constant": true
    }
  ],
  "bytecode": "0x608060405234801561000f575f80fd5b50610bf98061001d5f395ff3fe608060405234801561000f575f80fd5b506004361061007b575f3560e01c8063365b98b211610059578063365b98b2146100fd578063455c928c1461012e5780636ed6da9e1461014c578063e2842d791461017c5761007b565b80630255fa1e1461007f57806307973ccf146100af5780630e666e49146100cd575b5f80fd5b6100996004803603810190610094919061076f565b61019a565b6040516100a691906107b4565b60405180910390f35b6100b7610237565b6040516100c491906107e5565b60405180910390f35b6100e760048036038101906100e2919061076f565b61023d565b6040516100f491906107b4565b60405180910390f35b61011760048036038101906101129190610828565b610259565b604051610125929190610862565b60405180910390f35b610136610298565b60405161014391906108d4565b60405180910390f35b61016660048036038101906101619190610828565b6104e1565b60405161017391906108d4565b60405180910390f35b6101846105ba565b60405161019191906109c2565b60405180910390f35b5f80600190505b600254811161022d578273ffffffffffffffffffffffffffffffffffffffff1660015f8381526020019081526020015f206001015f9054906101000a900473ffffffffffffffffffffffffffffffffffffffff1673ffffffffffffffffffffffffffffffffffffffff160361021a576001915050610232565b808061022590610a0f565b9150506101a1565b505f90505b919050565b60025481565b5f602052805f5260405f205f915054906101000a900460ff1681565b6001602052805f5260405f205f91509050805f015490806001015f9054906101000a900473ffffffffffffffffffffffffffffffffffffffff16905082565b6102a06106e3565b5f803373ffffffffffffffffffffffffffffffffffffffff1673ffffffffffffffffffffffffffffffffffffffff1681526020019081526020015f205f9054906101000a900460ff1615610329576040517f08c379a000000000000000000000000000000000000000000000000000000000815260040161032090610ab0565b60405180910390fd5b60025f81548092919061033b90610a0f565b9190505550604051806040016040528060025481526020013373ffffffffffffffffffffffffffffffffffffffff1681525060015f60025481526020019081526020015f205f820151815f01556020820151816001015f6101000a81548173ffffffffffffffffffffffffffffffffffffffff021916908373ffffffffffffffffffffffffffffffffffffffff16021790555090505060015f803373ffffffffffffffffffffffffffffffffffffffff1673ffffffffffffffffffffffffffffffffffffffff1681526020019081526020015f205f6101000a81548160ff02191690831515021790555060015f60025481526020019081526020015f206040518060400160405290815f8201548152602001600182015f9054906101000a900473ffffffffffffffffffffffffffffffffffffffff1673ffffffffffffffffffffffffffffffffffffffff1673ffffffffffffffffffffffffffffffffffffffff168152505090507f785caf8769bd44d265fce8c1a3327e91646fe19be3a87506383b5e95a5c43494600254336040516104d6929190610862565b60405180910390a190565b6104e96106e3565b5f821180156104fa57506002548211155b610539576040517f08c379a000000000000000000000000000000000000000000000000000000000815260040161053090610b18565b60405180910390fd5b60015f8381526020019081526020015f206040518060400160405290815f8201548152602001600182015f9054906101000a900473ffffffffffffffffffffffffffffffffffffffff1673ffffffffffffffffffffffffffffffffffffffff1673ffffffffffffffffffffffffffffffffffffffff16815250509050919050565b60605f60025467ffffffffffffffff8111156105d9576105d8610b36565b5b60405190808252806020026020018201604052801561061257816020015b6105ff6106e3565b8152602001906001900390816105f75790505b5090505f600190505b60025481116106db5760015f8281526020019081526020015f206040518060400160405290815f8201548152602001600182015f9054906101000a900473ffffffffffffffffffffffffffffffffffffffff1673ffffffffffffffffffffffffffffffffffffffff1673ffffffffffffffffffffffffffffffffffffffff1681525050826001836106ac9190610b63565b815181106106bd576106bc610b96565b5b602002602001018190525080806106d390610a0f565b91505061061b565b508091505090565b60405180604001604052805f81526020015f73ffffffffffffffffffffffffffffffffffffffff1681525090565b5f80fd5b5f73ffffffffffffffffffffffffffffffffffffffff82169050919050565b5f61073e82610715565b9050919050565b61074e81610734565b8114610758575f80fd5b50565b5f8135905061076981610745565b92915050565b5f6020828403121561078457610783610711565b5b5f6107918482850161075b565b91505092915050565b5f8115159050919050565b6107ae8161079a565b82525050565b5f6020820190506107c75f8301846107a5565b92915050565b5f819050919050565b6107df816107cd565b82525050565b5f6020820190506107f85f8301846107d6565b92915050565b610807816107cd565b8114610811575f80fd5b50565b5f81359050610822816107fe565b92915050565b5f6020828403121561083d5761083c610711565b5b5f61084a84828501610814565b91505092915050565b61085c81610734565b82525050565b5f6040820190506108755f8301856107d6565b6108826020830184610853565b9392505050565b610892816107cd565b82525050565b6108a181610734565b82525050565b604082015f8201516108bb5f850182610889565b5060208201516108ce6020850182610898565b50505050565b5f6040820190506108e75f8301846108a7565b92915050565b5f81519050919050565b5f82825260208201905092915050565b5f819050602082019050919050565b604082015f82015161092a5f850182610889565b50602082015161093d6020850182610898565b50505050565b5f61094e8383610916565b60408301905092915050565b5f602082019050919050565b5f610970826108ed565b61097a81856108f7565b935061098583610907565b805f5b838110156109b557815161099c8882610943565b97506109a78361095a565b925050600181019050610988565b5085935050505092915050565b5f6020820190508181035f8301526109da8184610966565b905092915050565b7f4e487b71000000000000000000000000000000000000000000000000000000005f52601160045260245ffd5b5f610a19826107cd565b91507fffffffffffffffffffffffffffffffffffffffffffffffffffffffffffffffff8203610a4b57610a4a6109e2565b5b600182019050919050565b5f82825260208201905092915050565b7f5573657220616c726561647920657869737473000000000000000000000000005f82015250565b5f610a9a601383610a56565b9150610aa582610a66565b602082019050919050565b5f6020820190508181035f830152610ac781610a8e565b9050919050565b7f5573657220646f6573206e6f74206578697374000000000000000000000000005f82015250565b5f610b02601383610a56565b9150610b0d82610ace565b602082019050919050565b5f6020820190508181035f830152610b2f81610af6565b9050919050565b7f4e487b71000000000000000000000000000000000000000000000000000000005f52604160045260245ffd5b5f610b6d826107cd565b9150610b78836107cd565b9250828203905081811115610b9057610b8f6109e2565b5b92915050565b7f4e487b71000000000000000000000000000000000000000000000000000000005f52603260045260245ffdfea2646970667358221220a7fc65d6c73188fb5039e48efdaed5a6cb0d6038a56373c9925a7b6affc6ce0b64736f6c63430008150033",
  "immutableReferences": {},
  "source": "// SPDX-License-Identifier: MIT\r\npragma solidity ^0.8.0;\r\n\r\ncontract User {\r\n    struct UserData {\r\n        uint256 userId;\r\n        address userAddress;\r\n    }\r\n\r\n    mapping(address => bool) public userExists;\r\n    mapping(uint256 => UserData) public users;\r\n    uint256 public userCount;\r\n\r\n    event UserAdded(uint256 userId, address userAddress);\r\n\r\n    function addUser() external returns (UserData memory newUser) {\r\n        require(!userExists[msg.sender], \"User already exists\");\r\n\r\n        userCount++;\r\n        users[userCount] = UserData(userCount, msg.sender);\r\n        userExists[msg.sender] = true;\r\n\r\n        newUser = users[userCount];\r\n        emit UserAdded(userCount, msg.sender);\r\n    }\r\n\r\n    function getAllUsers() external view returns (UserData[] memory) {\r\n        UserData[] memory allUsers = new UserData[](userCount);\r\n        for (uint256 i = 1; i <= userCount; i++) {\r\n            allUsers[i - 1] = users[i];\r\n        }\r\n        return allUsers;\r\n    }\r\n\r\n    function getUserById(\r\n        uint256 _userId\r\n    ) external view returns (UserData memory) {\r\n        require(_userId > 0 && _userId <= userCount, \"User does not exist\");\r\n        return users[_userId];\r\n    }\r\n\r\n    function isUserExist(address _userAddress) external view returns (bool) {\r\n        for (uint256 i = 1; i <= userCount; i++) {\r\n            if (users[i].userAddress == _userAddress) {\r\n                return true;\r\n            }\r\n        }\r\n        return false;\r\n    }\r\n}\r\n",
  "sourcePath": "D:\\Freelance\\facroryreact\\factorymanagment\\blockchain\\contracts\\1_user.sol",
  "compiler": {
    "name": "solc",
    "version": "0.8.21+commit.d9974bed.Emscripten.clang"
  },
  "schemaVersion": "3.4.16",
  "updatedAt": "2024-04-06T20:29:13.318Z",
  "networkType": "ethereum",
  "devdoc": {
    "kind": "dev",
    "methods": {},
    "version": 1
  },
  "userdoc": {
    "kind": "user",
    "methods": {},
    "version": 1
  }
}