{
  "contractName": "Equipments",
  "abi": [
    {
      "inputs": [
        {
          "internalType": "address",
          "name": "_factoryContractAddress",
          "type": "address"
        }
      ],
      "stateMutability": "nonpayable",
      "type": "constructor"
    },
    {
      "anonymous": false,
      "inputs": [
        {
          "indexed": false,
          "internalType": "uint256",
          "name": "equipmentId",
          "type": "uint256"
        },
        {
          "indexed": false,
          "internalType": "string",
          "name": "equipmentName",
          "type": "string"
        }
      ],
      "name": "EquipmentAdded",
      "type": "event"
    },
    {
      "inputs": [],
      "name": "equipmentCount",
      "outputs": [
        {
          "internalType": "uint256",
          "name": "",
          "type": "uint256"
        }
      ],
      "stateMutability": "view",
      "type": "function",
      "constant": true
    },
    {
      "inputs": [
        {
          "internalType": "uint256",
          "name": "",
          "type": "uint256"
        }
      ],
      "name": "equipments",
      "outputs": [
        {
          "internalType": "uint256",
          "name": "equipmentId",
          "type": "uint256"
        },
        {
          "internalType": "string",
          "name": "equipmentName",
          "type": "string"
        },
        {
          "internalType": "uint256",
          "name": "cycleTime",
          "type": "uint256"
        },
        {
          "internalType": "uint256",
          "name": "factoryId",
          "type": "uint256"
        }
      ],
      "stateMutability": "view",
      "type": "function",
      "constant": true
    },
    {
      "inputs": [
        {
          "internalType": "string",
          "name": "_equipmentName",
          "type": "string"
        },
        {
          "internalType": "uint256",
          "name": "_cycleTime",
          "type": "uint256"
        },
        {
          "internalType": "uint256",
          "name": "_factoryId",
          "type": "uint256"
        }
      ],
      "name": "addEquipment",
      "outputs": [],
      "stateMutability": "nonpayable",
      "type": "function"
    },
    {
      "inputs": [
        {
          "internalType": "uint256",
          "name": "_equipmentId",
          "type": "uint256"
        }
      ],
      "name": "equipmentExists",
      "outputs": [
        {
          "internalType": "bool",
          "name": "",
          "type": "bool"
        }
      ],
      "stateMutability": "view",
      "type": "function",
      "constant": true
    },
    {
      "inputs": [],
      "name": "getAllEquipments",
      "outputs": [
        {
          "components": [
            {
              "internalType": "uint256",
              "name": "equipmentId",
              "type": "uint256"
            },
            {
              "internalType": "string",
              "name": "equipmentName",
              "type": "string"
            },
            {
              "internalType": "uint256",
              "name": "cycleTime",
              "type": "uint256"
            },
            {
              "internalType": "uint256",
              "name": "factoryId",
              "type": "uint256"
            }
          ],
          "internalType": "struct Equipments.Equipment[]",
          "name": "",
          "type": "tuple[]"
        }
      ],
      "stateMutability": "view",
      "type": "function",
      "constant": true
    },
    {
      "inputs": [
        {
          "internalType": "uint256",
          "name": "_equipmentId",
          "type": "uint256"
        }
      ],
      "name": "getEquipmentById",
      "outputs": [
        {
          "components": [
            {
              "internalType": "uint256",
              "name": "equipmentId",
              "type": "uint256"
            },
            {
              "internalType": "string",
              "name": "equipmentName",
              "type": "string"
            },
            {
              "internalType": "uint256",
              "name": "cycleTime",
              "type": "uint256"
            },
            {
              "internalType": "uint256",
              "name": "factoryId",
              "type": "uint256"
            }
          ],
          "internalType": "struct Equipments.Equipment",
          "name": "",
          "type": "tuple"
        }
      ],
      "stateMutability": "view",
      "type": "function",
      "constant": true
    }
  ],
  "bytecode": "0x608060405234801562000010575f80fd5b5060405162001164380380620011648339818101604052810190620000369190620000e1565b805f806101000a81548173ffffffffffffffffffffffffffffffffffffffff021916908373ffffffffffffffffffffffffffffffffffffffff1602179055505062000111565b5f80fd5b5f73ffffffffffffffffffffffffffffffffffffffff82169050919050565b5f620000ab8262000080565b9050919050565b620000bd816200009f565b8114620000c8575f80fd5b50565b5f81519050620000db81620000b2565b92915050565b5f60208284031215620000f957620000f86200007c565b5b5f6200010884828501620000cb565b91505092915050565b611045806200011f5f395ff3fe608060405234801561000f575f80fd5b5060043610610060575f3560e01c806328512d2b146100645780634bb67b5a146100825780634ca608791461009e57806357a286e5146100ce578063a6efd620146100fe578063d268582514610131575b5f80fd5b61006c61014f565b6040516100799190610657565b60405180910390f35b61009c600480360381019061009791906107e7565b610155565b005b6100b860048036038101906100b39190610853565b6102ee565b6040516100c59190610898565b60405180910390f35b6100e860048036038101906100e39190610853565b610307565b6040516100f5919061099a565b60405180910390f35b61011860048036038101906101139190610853565b6103f0565b6040516101289493929190610a02565b60405180910390f35b6101396104a2565b6040516101469190610b67565b60405180910390f35b60025481565b5f8054906101000a900473ffffffffffffffffffffffffffffffffffffffff1673ffffffffffffffffffffffffffffffffffffffff16638683f039826040518263ffffffff1660e01b81526004016101ad9190610657565b602060405180830381865afa1580156101c8573d5f803e3d5ffd5b505050506040513d601f19601f820116820180604052508101906101ec9190610bb1565b1561022c576040517f08c379a000000000000000000000000000000000000000000000000000000000815260040161022390610c26565b60405180910390fd5b60025f81548092919061023e90610c71565b9190505550604051806080016040528060025481526020018481526020018381526020018281525060015f60025481526020019081526020015f205f820151815f015560208201518160010190816102969190610eb2565b5060408201518160020155606082015181600301559050507f210c3bdafd83125ef43f2e5b8a16dc45efd7816ce38ed4fad17f40f56e68f9d5600254846040516102e1929190610f81565b60405180910390a1505050565b5f808211801561030057506002548211155b9050919050565b61030f61061a565b5f60015f6001856103209190610faf565b81526020019081526020015f206040518060800160405290815f820154815260200160018201805461035190610ce5565b80601f016020809104026020016040519081016040528092919081815260200182805461037d90610ce5565b80156103c85780601f1061039f576101008083540402835291602001916103c8565b820191905f5260205f20905b8154815290600101906020018083116103ab57829003601f168201915b5050505050815260200160028201548152602001600382015481525050905080915050919050565b6001602052805f5260405f205f91509050805f01549080600101805461041590610ce5565b80601f016020809104026020016040519081016040528092919081815260200182805461044190610ce5565b801561048c5780601f106104635761010080835404028352916020019161048c565b820191905f5260205f20905b81548152906001019060200180831161046f57829003601f168201915b5050505050908060020154908060030154905084565b60605f60025467ffffffffffffffff8111156104c1576104c0610699565b5b6040519080825280602002602001820160405280156104fa57816020015b6104e761061a565b8152602001906001900390816104df5790505b5090505f600190505b60025481116106125760015f8281526020019081526020015f206040518060800160405290815f820154815260200160018201805461054190610ce5565b80601f016020809104026020016040519081016040528092919081815260200182805461056d90610ce5565b80156105b85780601f1061058f576101008083540402835291602001916105b8565b820191905f5260205f20905b81548152906001019060200180831161059b57829003601f168201915b5050505050815260200160028201548152602001600382015481525050826001836105e39190610faf565b815181106105f4576105f3610fe2565b5b6020026020010181905250808061060a90610c71565b915050610503565b508091505090565b60405180608001604052805f8152602001606081526020015f81526020015f81525090565b5f819050919050565b6106518161063f565b82525050565b5f60208201905061066a5f830184610648565b92915050565b5f604051905090565b5f80fd5b5f80fd5b5f80fd5b5f80fd5b5f601f19601f8301169050919050565b7f4e487b71000000000000000000000000000000000000000000000000000000005f52604160045260245ffd5b6106cf82610689565b810181811067ffffffffffffffff821117156106ee576106ed610699565b5b80604052505050565b5f610700610670565b905061070c82826106c6565b919050565b5f67ffffffffffffffff82111561072b5761072a610699565b5b61073482610689565b9050602081019050919050565b828183375f83830152505050565b5f61076161075c84610711565b6106f7565b90508281526020810184848401111561077d5761077c610685565b5b610788848285610741565b509392505050565b5f82601f8301126107a4576107a3610681565b5b81356107b484826020860161074f565b91505092915050565b6107c68161063f565b81146107d0575f80fd5b50565b5f813590506107e1816107bd565b92915050565b5f805f606084860312156107fe576107fd610679565b5b5f84013567ffffffffffffffff81111561081b5761081a61067d565b5b61082786828701610790565b9350506020610838868287016107d3565b9250506040610849868287016107d3565b9150509250925092565b5f6020828403121561086857610867610679565b5b5f610875848285016107d3565b91505092915050565b5f8115159050919050565b6108928161087e565b82525050565b5f6020820190506108ab5f830184610889565b92915050565b6108ba8161063f565b82525050565b5f81519050919050565b5f82825260208201905092915050565b5f5b838110156108f75780820151818401526020810190506108dc565b5f8484015250505050565b5f61090c826108c0565b61091681856108ca565b93506109268185602086016108da565b61092f81610689565b840191505092915050565b5f608083015f83015161094f5f8601826108b1565b50602083015184820360208601526109678282610902565b915050604083015161097c60408601826108b1565b50606083015161098f60608601826108b1565b508091505092915050565b5f6020820190508181035f8301526109b2818461093a565b905092915050565b5f82825260208201905092915050565b5f6109d4826108c0565b6109de81856109ba565b93506109ee8185602086016108da565b6109f781610689565b840191505092915050565b5f608082019050610a155f830187610648565b8181036020830152610a2781866109ca565b9050610a366040830185610648565b610a436060830184610648565b95945050505050565b5f81519050919050565b5f82825260208201905092915050565b5f819050602082019050919050565b5f608083015f830151610a8a5f8601826108b1565b5060208301518482036020860152610aa28282610902565b9150506040830151610ab760408601826108b1565b506060830151610aca60608601826108b1565b508091505092915050565b5f610ae08383610a75565b905092915050565b5f602082019050919050565b5f610afe82610a4c565b610b088185610a56565b935083602082028501610b1a85610a66565b805f5b85811015610b555784840389528151610b368582610ad5565b9450610b4183610ae8565b925060208a01995050600181019050610b1d565b50829750879550505050505092915050565b5f6020820190508181035f830152610b7f8184610af4565b905092915050565b610b908161087e565b8114610b9a575f80fd5b50565b5f81519050610bab81610b87565b92915050565b5f60208284031215610bc657610bc5610679565b5b5f610bd384828501610b9d565b91505092915050565b7f466163746f7279206e6f7420666f756e640000000000000000000000000000005f82015250565b5f610c106011836109ba565b9150610c1b82610bdc565b602082019050919050565b5f6020820190508181035f830152610c3d81610c04565b9050919050565b7f4e487b71000000000000000000000000000000000000000000000000000000005f52601160045260245ffd5b5f610c7b8261063f565b91507fffffffffffffffffffffffffffffffffffffffffffffffffffffffffffffffff8203610cad57610cac610c44565b5b600182019050919050565b7f4e487b71000000000000000000000000000000000000000000000000000000005f52602260045260245ffd5b5f6002820490506001821680610cfc57607f821691505b602082108103610d0f57610d0e610cb8565b5b50919050565b5f819050815f5260205f209050919050565b5f6020601f8301049050919050565b5f82821b905092915050565b5f60088302610d717fffffffffffffffffffffffffffffffffffffffffffffffffffffffffffffffff82610d36565b610d7b8683610d36565b95508019841693508086168417925050509392505050565b5f819050919050565b5f610db6610db1610dac8461063f565b610d93565b61063f565b9050919050565b5f819050919050565b610dcf83610d9c565b610de3610ddb82610dbd565b848454610d42565b825550505050565b5f90565b610df7610deb565b610e02818484610dc6565b505050565b5b81811015610e2557610e1a5f82610def565b600181019050610e08565b5050565b601f821115610e6a57610e3b81610d15565b610e4484610d27565b81016020851015610e53578190505b610e67610e5f85610d27565b830182610e07565b50505b505050565b5f82821c905092915050565b5f610e8a5f1984600802610e6f565b1980831691505092915050565b5f610ea28383610e7b565b9150826002028217905092915050565b610ebb826108c0565b67ffffffffffffffff811115610ed457610ed3610699565b5b610ede8254610ce5565b610ee9828285610e29565b5f60209050601f831160018114610f1a575f8415610f08578287015190505b610f128582610e97565b865550610f79565b601f198416610f2886610d15565b5f5b82811015610f4f57848901518255600182019150602085019450602081019050610f2a565b86831015610f6c5784890151610f68601f891682610e7b565b8355505b6001600288020188555050505b505050505050565b5f604082019050610f945f830185610648565b8181036020830152610fa681846109ca565b90509392505050565b5f610fb98261063f565b9150610fc48361063f565b9250828203905081811115610fdc57610fdb610c44565b5b92915050565b7f4e487b71000000000000000000000000000000000000000000000000000000005f52603260045260245ffdfea2646970667358221220db2bbe25fdae31383f96194c9433ba6d46179c7578ab3ca3a7ab2b5c360d8fa564736f6c63430008150033",
  "immutableReferences": {},
  "source": "// SPDX-License-Identifier: MIT\r\npragma solidity ^0.8.0;\r\n\r\nimport \"./2_factory.sol\";\r\ncontract Equipments {\r\n    Factory factoryContract;\r\n    struct Equipment {\r\n        uint256 equipmentId;\r\n        string equipmentName;\r\n        uint256 cycleTime;\r\n        uint256 factoryId;\r\n    }\r\n\r\n    constructor(address _factoryContractAddress) {\r\n        factoryContract = Factory(_factoryContractAddress);\r\n    }\r\n\r\n    mapping(uint256 => Equipment) public equipments;\r\n    uint256 public equipmentCount;\r\n\r\n    event EquipmentAdded(uint256 equipmentId, string equipmentName);\r\n\r\n    function addEquipment(\r\n        string memory _equipmentName,\r\n        uint256 _cycleTime,\r\n        uint256 _factoryId\r\n    ) external {\r\n        require(\r\n            !factoryContract.isFactoryExists(_factoryId),\r\n            \"Factory not found\"\r\n        );\r\n        equipmentCount++;\r\n        equipments[equipmentCount] = Equipment(\r\n            equipmentCount,\r\n            _equipmentName,\r\n            _cycleTime,\r\n            _factoryId\r\n        );\r\n        emit EquipmentAdded(equipmentCount, _equipmentName);\r\n    }\r\n\r\n    function equipmentExists(uint256 _equipmentId) public view returns (bool) {\r\n        return _equipmentId > 0 && _equipmentId <= equipmentCount;\r\n    }\r\n\r\n    function getAllEquipments() external view returns (Equipment[] memory) {\r\n        Equipment[] memory allEquipments = new Equipment[](equipmentCount);\r\n        for (uint256 i = 1; i <= equipmentCount; i++) {\r\n            allEquipments[i - 1] = equipments[i];\r\n        }\r\n        return allEquipments;\r\n    }\r\n\r\n    function getEquipmentById(\r\n        uint256 _equipmentId\r\n    ) public view returns (Equipment memory) {\r\n        Equipment memory equipment = equipments[_equipmentId - 1];\r\n        return equipment;\r\n    }\r\n}\r\n",
  "sourcePath": "D:\\Freelance\\facroryreact\\factorymanagment\\src\\blockchain\\contracts\\4_Equipments.sol",
  "compiler": {
    "name": "solc",
    "version": "0.8.21+commit.d9974bed.Emscripten.clang"
  },
  "schemaVersion": "3.4.16",
  "updatedAt": "2024-04-06T16:37:03.370Z",
  "networkType": "ethereum",
  "devdoc": {
    "kind": "dev",
    "methods": {},
    "version": 1
  },
  "userdoc": {
    "kind": "user",
    "methods": {},
    "version": 1
  }
}