{
  "contractName": "Jobs",
  "abi": [
    {
      "inputs": [
        {
          "internalType": "address",
          "name": "_productsContractAddress",
          "type": "address"
        },
        {
          "internalType": "address",
          "name": "_equipmentContractAddress",
          "type": "address"
        }
      ],
      "stateMutability": "nonpayable",
      "type": "constructor"
    },
    {
      "anonymous": false,
      "inputs": [
        {
          "indexed": false,
          "internalType": "address",
          "name": "sender",
          "type": "address"
        },
        {
          "indexed": false,
          "internalType": "uint256",
          "name": "amount",
          "type": "uint256"
        }
      ],
      "name": "EthersReceived",
      "type": "event"
    },
    {
      "anonymous": false,
      "inputs": [
        {
          "indexed": false,
          "internalType": "uint256",
          "name": "jobId",
          "type": "uint256"
        },
        {
          "indexed": false,
          "internalType": "uint256",
          "name": "equipmentId",
          "type": "uint256"
        },
        {
          "indexed": false,
          "internalType": "uint256",
          "name": "productId",
          "type": "uint256"
        }
      ],
      "name": "JobAdded",
      "type": "event"
    },
    {
      "inputs": [],
      "name": "equipmentContract",
      "outputs": [
        {
          "internalType": "contract Equipments",
          "name": "",
          "type": "address"
        }
      ],
      "stateMutability": "view",
      "type": "function",
      "constant": true
    },
    {
      "inputs": [],
      "name": "jobCount",
      "outputs": [
        {
          "internalType": "uint256",
          "name": "",
          "type": "uint256"
        }
      ],
      "stateMutability": "view",
      "type": "function",
      "constant": true
    },
    {
      "inputs": [
        {
          "internalType": "uint256",
          "name": "",
          "type": "uint256"
        }
      ],
      "name": "jobs",
      "outputs": [
        {
          "internalType": "uint256",
          "name": "jobId",
          "type": "uint256"
        },
        {
          "internalType": "uint256",
          "name": "equipmentId",
          "type": "uint256"
        },
        {
          "internalType": "uint256",
          "name": "productId",
          "type": "uint256"
        },
        {
          "internalType": "uint256",
          "name": "productionCount",
          "type": "uint256"
        },
        {
          "internalType": "bool",
          "name": "running",
          "type": "bool"
        }
      ],
      "stateMutability": "view",
      "type": "function",
      "constant": true
    },
    {
      "inputs": [],
      "name": "productsContract",
      "outputs": [
        {
          "internalType": "contract Products",
          "name": "",
          "type": "address"
        }
      ],
      "stateMutability": "view",
      "type": "function",
      "constant": true
    },
    {
      "stateMutability": "payable",
      "type": "receive",
      "payable": true
    },
    {
      "inputs": [
        {
          "internalType": "uint256",
          "name": "_equipmentId",
          "type": "uint256"
        },
        {
          "internalType": "uint256",
          "name": "_productId",
          "type": "uint256"
        }
      ],
      "name": "addJob",
      "outputs": [],
      "stateMutability": "nonpayable",
      "type": "function"
    },
    {
      "inputs": [
        {
          "internalType": "uint256",
          "name": "_jobId",
          "type": "uint256"
        },
        {
          "internalType": "bool",
          "name": "_running",
          "type": "bool"
        }
      ],
      "name": "changeJobState",
      "outputs": [],
      "stateMutability": "nonpayable",
      "type": "function"
    },
    {
      "inputs": [
        {
          "internalType": "uint256",
          "name": "_jobId",
          "type": "uint256"
        },
        {
          "internalType": "uint256",
          "name": "_productionCount",
          "type": "uint256"
        }
      ],
      "name": "increaseProductionCount",
      "outputs": [],
      "stateMutability": "nonpayable",
      "type": "function"
    },
    {
      "inputs": [],
      "name": "getAllJobs",
      "outputs": [
        {
          "components": [
            {
              "internalType": "uint256",
              "name": "jobId",
              "type": "uint256"
            },
            {
              "internalType": "uint256",
              "name": "equipmentId",
              "type": "uint256"
            },
            {
              "internalType": "uint256",
              "name": "productId",
              "type": "uint256"
            },
            {
              "internalType": "uint256",
              "name": "productionCount",
              "type": "uint256"
            },
            {
              "internalType": "bool",
              "name": "running",
              "type": "bool"
            }
          ],
          "internalType": "struct Jobs.Job[]",
          "name": "",
          "type": "tuple[]"
        }
      ],
      "stateMutability": "view",
      "type": "function",
      "constant": true
    },
    {
      "inputs": [],
      "name": "getActiveJobs",
      "outputs": [
        {
          "components": [
            {
              "internalType": "uint256",
              "name": "jobId",
              "type": "uint256"
            },
            {
              "internalType": "uint256",
              "name": "equipmentId",
              "type": "uint256"
            },
            {
              "internalType": "uint256",
              "name": "productId",
              "type": "uint256"
            },
            {
              "internalType": "uint256",
              "name": "productionCount",
              "type": "uint256"
            },
            {
              "internalType": "bool",
              "name": "running",
              "type": "bool"
            }
          ],
          "internalType": "struct Jobs.Job[]",
          "name": "",
          "type": "tuple[]"
        }
      ],
      "stateMutability": "view",
      "type": "function",
      "constant": true
    }
  ],
  "bytecode": "0x608060405234801562000010575f80fd5b50604051620011b0380380620011b0833981810160405281019062000036919062000122565b815f806101000a81548173ffffffffffffffffffffffffffffffffffffffff021916908373ffffffffffffffffffffffffffffffffffffffff1602179055508060015f6101000a81548173ffffffffffffffffffffffffffffffffffffffff021916908373ffffffffffffffffffffffffffffffffffffffff160217905550505062000167565b5f80fd5b5f73ffffffffffffffffffffffffffffffffffffffff82169050919050565b5f620000ec82620000c1565b9050919050565b620000fe81620000e0565b811462000109575f80fd5b50565b5f815190506200011c81620000f3565b92915050565b5f80604083850312156200013b576200013a620000bd565b5b5f6200014a858286016200010c565b92505060206200015d858286016200010c565b9150509250929050565b61103b80620001755f395ff3fe608060405260043610610089575f3560e01c80634c5d8a0f116100585780634c5d8a0f1461018b57806389250c5d146101b5578063965a79fb146101dd5780639f0ef11514610207578063d83e0e051461022f576100c9565b8063119f0ef8146100cd57806314b3edc0146100f7578063180aedf31461012157806337597cb514610161576100c9565b366100c9577f541643342e74eb4d6b8af5ccc861b1eb40efcd85cddf61975feb1bc0be7fcdd233346040516100bf929190610972565b60405180910390a1005b5f80fd5b3480156100d8575f80fd5b506100e1610257565b6040516100ee91906109f4565b60405180910390f35b348015610102575f80fd5b5061010b61027c565b6040516101189190610a2d565b60405180910390f35b34801561012c575f80fd5b5061014760048036038101906101429190610a74565b61029f565b604051610158959493929190610ab9565b60405180910390f35b34801561016c575f80fd5b506101756102dd565b6040516101829190610c36565b60405180910390f35b348015610196575f80fd5b5061019f61046a565b6040516101ac9190610c56565b60405180910390f35b3480156101c0575f80fd5b506101db60048036038101906101d69190610c99565b610470565b005b3480156101e8575f80fd5b506101f16104e4565b6040516101fe9190610c36565b60405180910390f35b348015610212575f80fd5b5061022d60048036038101906102289190610cd7565b6105f0565b005b34801561023a575f80fd5b5061025560048036038101906102509190610cd7565b61087c565b005b60015f9054906101000a900473ffffffffffffffffffffffffffffffffffffffff1681565b5f8054906101000a900473ffffffffffffffffffffffffffffffffffffffff1681565b6002602052805f5260405f205f91509050805f015490806001015490806002015490806003015490806004015f9054906101000a900460ff16905085565b60605f80600190505b60035481116103375760025f8281526020019081526020015f206004015f9054906101000a900460ff161561032457818061032090610d42565b9250505b808061032f90610d42565b9150506102e6565b505f8167ffffffffffffffff81111561035357610352610d89565b5b60405190808252806020026020018201604052801561038c57816020015b6103796108ef565b8152602001906001900390816103715790505b5090505f80600190505b60035481116104605760025f8281526020019081526020015f206004015f9054906101000a900460ff161561044d5760025f8281526020019081526020015f206040518060a00160405290815f8201548152602001600182015481526020016002820154815260200160038201548152602001600482015f9054906101000a900460ff16151515158152505083838061042e90610d42565b94508151811061044157610440610db6565b5b60200260200101819052505b808061045890610d42565b915050610396565b5081935050505090565b60035481565b6003548211156104b5576040517f08c379a00000000000000000000000000000000000000000000000000000000081526004016104ac90610e3d565b60405180910390fd5b8060025f8481526020019081526020015f206004015f6101000a81548160ff0219169083151502179055505050565b60605f60035467ffffffffffffffff81111561050357610502610d89565b5b60405190808252806020026020018201604052801561053c57816020015b6105296108ef565b8152602001906001900390816105215790505b5090505f600190505b60035481116105e85760025f8281526020019081526020015f206040518060a00160405290815f8201548152602001600182015481526020016002820154815260200160038201548152602001600482015f9054906101000a900460ff161515151581525050826001836105b99190610e5b565b815181106105ca576105c9610db6565b5b602002602001018190525080806105e090610d42565b915050610545565b508091505090565b5f8054906101000a900473ffffffffffffffffffffffffffffffffffffffff1673ffffffffffffffffffffffffffffffffffffffff1663af55ed64826040518263ffffffff1660e01b81526004016106489190610c56565b602060405180830381865afa158015610663573d5f803e3d5ffd5b505050506040513d601f19601f820116820180604052508101906106879190610ea2565b6106c6576040517f08c379a00000000000000000000000000000000000000000000000000000000081526004016106bd90610f17565b60405180910390fd5b60015f9054906101000a900473ffffffffffffffffffffffffffffffffffffffff1673ffffffffffffffffffffffffffffffffffffffff16634ca60879836040518263ffffffff1660e01b81526004016107209190610c56565b602060405180830381865afa15801561073b573d5f803e3d5ffd5b505050506040513d601f19601f8201168201806040525081019061075f9190610ea2565b61079e576040517f08c379a000000000000000000000000000000000000000000000000000000000815260040161079590610f7f565b60405180910390fd5b60035f8154809291906107b090610d42565b91905055506040518060a0016040528060035481526020018381526020018281526020015f81526020015f151581525060025f60035481526020019081526020015f205f820151815f01556020820151816001015560408201518160020155606082015181600301556080820151816004015f6101000a81548160ff0219169083151502179055509050507f16ebdae5a992dd88b9a7e4f268821d3d3a13dfaba5deebd9a008b778a045da03600354838360405161087093929190610f9d565b60405180910390a15050565b6003548211156108c1576040517f08c379a00000000000000000000000000000000000000000000000000000000081526004016108b890610e3d565b60405180910390fd5b8060025f8481526020019081526020015f206003015f8282546108e49190610fd2565b925050819055505050565b6040518060a001604052805f81526020015f81526020015f81526020015f81526020015f151581525090565b5f73ffffffffffffffffffffffffffffffffffffffff82169050919050565b5f6109448261091b565b9050919050565b6109548161093a565b82525050565b5f819050919050565b61096c8161095a565b82525050565b5f6040820190506109855f83018561094b565b6109926020830184610963565b9392505050565b5f819050919050565b5f6109bc6109b76109b28461091b565b610999565b61091b565b9050919050565b5f6109cd826109a2565b9050919050565b5f6109de826109c3565b9050919050565b6109ee816109d4565b82525050565b5f602082019050610a075f8301846109e5565b92915050565b5f610a17826109c3565b9050919050565b610a2781610a0d565b82525050565b5f602082019050610a405f830184610a1e565b92915050565b5f80fd5b610a538161095a565b8114610a5d575f80fd5b50565b5f81359050610a6e81610a4a565b92915050565b5f60208284031215610a8957610a88610a46565b5b5f610a9684828501610a60565b91505092915050565b5f8115159050919050565b610ab381610a9f565b82525050565b5f60a082019050610acc5f830188610963565b610ad96020830187610963565b610ae66040830186610963565b610af36060830185610963565b610b006080830184610aaa565b9695505050505050565b5f81519050919050565b5f82825260208201905092915050565b5f819050602082019050919050565b610b3c8161095a565b82525050565b610b4b81610a9f565b82525050565b60a082015f820151610b655f850182610b33565b506020820151610b786020850182610b33565b506040820151610b8b6040850182610b33565b506060820151610b9e6060850182610b33565b506080820151610bb16080850182610b42565b50505050565b5f610bc28383610b51565b60a08301905092915050565b5f602082019050919050565b5f610be482610b0a565b610bee8185610b14565b9350610bf983610b24565b805f5b83811015610c29578151610c108882610bb7565b9750610c1b83610bce565b925050600181019050610bfc565b5085935050505092915050565b5f6020820190508181035f830152610c4e8184610bda565b905092915050565b5f602082019050610c695f830184610963565b92915050565b610c7881610a9f565b8114610c82575f80fd5b50565b5f81359050610c9381610c6f565b92915050565b5f8060408385031215610caf57610cae610a46565b5b5f610cbc85828601610a60565b9250506020610ccd85828601610c85565b9150509250929050565b5f8060408385031215610ced57610cec610a46565b5b5f610cfa85828601610a60565b9250506020610d0b85828601610a60565b9150509250929050565b7f4e487b71000000000000000000000000000000000000000000000000000000005f52601160045260245ffd5b5f610d4c8261095a565b91507fffffffffffffffffffffffffffffffffffffffffffffffffffffffffffffffff8203610d7e57610d7d610d15565b5b600182019050919050565b7f4e487b71000000000000000000000000000000000000000000000000000000005f52604160045260245ffd5b7f4e487b71000000000000000000000000000000000000000000000000000000005f52603260045260245ffd5b5f82825260208201905092915050565b7f496e76616c6964204a6f622049440000000000000000000000000000000000005f82015250565b5f610e27600e83610de3565b9150610e3282610df3565b602082019050919050565b5f6020820190508181035f830152610e5481610e1b565b9050919050565b5f610e658261095a565b9150610e708361095a565b9250828203905081811115610e8857610e87610d15565b5b92915050565b5f81519050610e9c81610c6f565b92915050565b5f60208284031215610eb757610eb6610a46565b5b5f610ec484828501610e8e565b91505092915050565b7f50726f6475637420646f6573206e6f74206578697374000000000000000000005f82015250565b5f610f01601683610de3565b9150610f0c82610ecd565b602082019050919050565b5f6020820190508181035f830152610f2e81610ef5565b9050919050565b7f45717569706d656e7420646f6573206e6f7420657869737400000000000000005f82015250565b5f610f69601883610de3565b9150610f7482610f35565b602082019050919050565b5f6020820190508181035f830152610f9681610f5d565b9050919050565b5f606082019050610fb05f830186610963565b610fbd6020830185610963565b610fca6040830184610963565b949350505050565b5f610fdc8261095a565b9150610fe78361095a565b9250828201905080821115610fff57610ffe610d15565b5b9291505056fea264697066735822122038cdfaf4653684bd3de057c3438b35a5da99191aa19e9dc340994c6f6306c3b064736f6c63430008150033",
  "immutableReferences": {},
  "source": "// SPDX-License-Identifier: MIT\r\npragma solidity ^0.8.0;\r\n\r\nimport \"./3_Products.sol\";\r\nimport \"./4_Equipments.sol\";\r\n\r\ncontract Jobs {\r\n    Products public productsContract;\r\n    Equipments public equipmentContract;\r\n\r\n    constructor(\r\n        address _productsContractAddress,\r\n        address _equipmentContractAddress\r\n    ) {\r\n        productsContract = Products(_productsContractAddress);\r\n        equipmentContract = Equipments(_equipmentContractAddress);\r\n    }\r\n\r\n    struct Job {\r\n        uint256 jobId;\r\n        uint256 equipmentId;\r\n        uint256 productId;\r\n        uint256 productionCount;\r\n        bool running;\r\n    }\r\n\r\n    mapping(uint256 => Job) public jobs;\r\n    uint256 public jobCount;\r\n\r\n    event JobAdded(uint256 jobId, uint256 equipmentId, uint256 productId);\r\n    event EthersReceived(address sender, uint256 amount);\r\n\r\n    receive() external payable {\r\n        emit EthersReceived(msg.sender, msg.value);\r\n    }\r\n\r\n    function addJob(uint256 _equipmentId, uint256 _productId) external {\r\n        require(\r\n            productsContract.productExists(_productId),\r\n            \"Product does not exist\"\r\n        );\r\n        require(\r\n            equipmentContract.equipmentExists(_equipmentId),\r\n            \"Equipment does not exist\"\r\n        );\r\n        jobCount++;\r\n        jobs[jobCount] = Job(jobCount, _equipmentId, _productId, 0, false);\r\n        emit JobAdded(jobCount, _equipmentId, _productId);\r\n    }\r\n\r\n    function changeJobState(uint256 _jobId, bool _running) external {\r\n        require(_jobId <= jobCount, \"Invalid Job ID\");\r\n        jobs[_jobId].running = _running;\r\n    }\r\n\r\n    function increaseProductionCount(\r\n        uint256 _jobId,\r\n        uint256 _productionCount\r\n    ) external {\r\n        require(_jobId <= jobCount, \"Invalid Job ID\");\r\n        jobs[_jobId].productionCount += _productionCount;\r\n    }\r\n\r\n    function getAllJobs() external view returns (Job[] memory) {\r\n        Job[] memory _jobs = new Job[](jobCount);\r\n        for (uint256 i = 1; i <= jobCount; i++) {\r\n            _jobs[i - 1] = jobs[i];\r\n        }\r\n        return _jobs;\r\n    }\r\n\r\n    function getActiveJobs() external view returns (Job[] memory) {\r\n        uint256 activeJobCount;\r\n        for (uint256 i = 1; i <= jobCount; i++) {\r\n            if (jobs[i].running) {\r\n                activeJobCount++;\r\n            }\r\n        }\r\n        Job[] memory _activeJobs = new Job[](activeJobCount);\r\n        uint256 index = 0;\r\n        for (uint256 i = 1; i <= jobCount; i++) {\r\n            if (jobs[i].running) {\r\n                _activeJobs[index++] = jobs[i];\r\n            }\r\n        }\r\n        return _activeJobs;\r\n    }\r\n}\r\n",
  "sourcePath": "D:\\Freelance\\facroryreact\\factorymanagment\\src\\blockchain\\contracts\\5_Jobs.sol",
  "compiler": {
    "name": "solc",
    "version": "0.8.21+commit.d9974bed.Emscripten.clang"
  },
  "schemaVersion": "3.4.16",
  "updatedAt": "2024-04-06T16:37:03.648Z",
  "networkType": "ethereum",
  "devdoc": {
    "kind": "dev",
    "methods": {},
    "version": 1
  },
  "userdoc": {
    "kind": "user",
    "methods": {},
    "version": 1
  }
}