{
  "contractName": "Orders",
  "abi": [
    {
      "inputs": [
        {
          "internalType": "address",
          "name": "_productsContractAddress",
          "type": "address"
        }
      ],
      "stateMutability": "nonpayable",
      "type": "constructor"
    },
    {
      "anonymous": false,
      "inputs": [
        {
          "indexed": false,
          "internalType": "uint256",
          "name": "orderId",
          "type": "uint256"
        },
        {
          "indexed": false,
          "internalType": "uint256",
          "name": "productId",
          "type": "uint256"
        },
        {
          "indexed": false,
          "internalType": "uint256",
          "name": "quantity",
          "type": "uint256"
        },
        {
          "indexed": false,
          "internalType": "address",
          "name": "buyer",
          "type": "address"
        },
        {
          "indexed": false,
          "internalType": "address",
          "name": "seller",
          "type": "address"
        }
      ],
      "name": "OrderPlaced",
      "type": "event"
    },
    {
      "inputs": [],
      "name": "orderCount",
      "outputs": [
        {
          "internalType": "uint256",
          "name": "",
          "type": "uint256"
        }
      ],
      "stateMutability": "view",
      "type": "function",
      "constant": true
    },
    {
      "inputs": [
        {
          "internalType": "uint256",
          "name": "",
          "type": "uint256"
        }
      ],
      "name": "orders",
      "outputs": [
        {
          "internalType": "uint256",
          "name": "orderId",
          "type": "uint256"
        },
        {
          "internalType": "uint256",
          "name": "productId",
          "type": "uint256"
        },
        {
          "internalType": "uint256",
          "name": "quantity",
          "type": "uint256"
        },
        {
          "internalType": "address",
          "name": "buyer",
          "type": "address"
        },
        {
          "internalType": "address",
          "name": "seller",
          "type": "address"
        }
      ],
      "stateMutability": "view",
      "type": "function",
      "constant": true
    },
    {
      "inputs": [
        {
          "internalType": "uint256",
          "name": "_productId",
          "type": "uint256"
        },
        {
          "internalType": "uint256",
          "name": "_quantity",
          "type": "uint256"
        },
        {
          "internalType": "address",
          "name": "_seller",
          "type": "address"
        }
      ],
      "name": "placeOrder",
      "outputs": [],
      "stateMutability": "payable",
      "type": "function",
      "payable": true
    }
  ],
  "bytecode": "0x608060405234801561000f575f80fd5b50604051610a79380380610a79833981810160405281019061003191906100d4565b805f806101000a81548173ffffffffffffffffffffffffffffffffffffffff021916908373ffffffffffffffffffffffffffffffffffffffff160217905550506100ff565b5f80fd5b5f73ffffffffffffffffffffffffffffffffffffffff82169050919050565b5f6100a38261007a565b9050919050565b6100b381610099565b81146100bd575f80fd5b50565b5f815190506100ce816100aa565b92915050565b5f602082840312156100e9576100e8610076565b5b5f6100f6848285016100c0565b91505092915050565b61096d8061010c5f395ff3fe608060405260043610610033575f3560e01c80632453ffa81461003757806335e4365f14610061578063a85c38ef1461007d575b5f80fd5b348015610042575f80fd5b5061004b6100bd565b604051610058919061053b565b60405180910390f35b61007b600480360381019061007691906105dc565b6100c3565b005b348015610088575f80fd5b506100a3600480360381019061009e919061062c565b6104b3565b6040516100b4959493929190610666565b60405180910390f35b60025481565b5f8211610105576040517f08c379a00000000000000000000000000000000000000000000000000000000081526004016100fc90610711565b60405180910390fd5b815f8054906101000a900473ffffffffffffffffffffffffffffffffffffffff1673ffffffffffffffffffffffffffffffffffffffff1663e7bf7dfc856040518263ffffffff1660e01b815260040161015e919061053b565b602060405180830381865afa158015610179573d5f803e3d5ffd5b505050506040513d601f19601f8201168201806040525081019061019d9190610743565b6101a7919061079b565b34146101e8576040517f08c379a00000000000000000000000000000000000000000000000000000000081526004016101df90610826565b60405180910390fd5b60025f8154809291906101fa90610844565b91905055506040518060a0016040528060025481526020018481526020018381526020013373ffffffffffffffffffffffffffffffffffffffff1681526020018273ffffffffffffffffffffffffffffffffffffffff1681525060015f60025481526020019081526020015f205f820151815f015560208201518160010155604082015181600201556060820151816003015f6101000a81548173ffffffffffffffffffffffffffffffffffffffff021916908373ffffffffffffffffffffffffffffffffffffffff1602179055506080820151816004015f6101000a81548173ffffffffffffffffffffffffffffffffffffffff021916908373ffffffffffffffffffffffffffffffffffffffff1602179055509050505f8054906101000a900473ffffffffffffffffffffffffffffffffffffffff1673ffffffffffffffffffffffffffffffffffffffff166394bf728784846040518363ffffffff1660e01b815260040161036c92919061088b565b5f604051808303815f87803b158015610383575f80fd5b505af1158015610395573d5f803e3d5ffd5b505050505f8054906101000a900473ffffffffffffffffffffffffffffffffffffffff1673ffffffffffffffffffffffffffffffffffffffff1663093fb6fc84846103df906108bb565b6040518363ffffffff1660e01b81526004016103fc929190610910565b5f604051808303815f87803b158015610413575f80fd5b505af1158015610425573d5f803e3d5ffd5b505050508073ffffffffffffffffffffffffffffffffffffffff166108fc3490811502906040515f60405180830381858888f1935050505015801561046c573d5f803e3d5ffd5b507fa0b5c911082416eea473eb1b701bfecdcbe67151ccb6a34761d47ef9ae624212600254848433856040516104a6959493929190610666565b60405180910390a1505050565b6001602052805f5260405f205f91509050805f015490806001015490806002015490806003015f9054906101000a900473ffffffffffffffffffffffffffffffffffffffff1690806004015f9054906101000a900473ffffffffffffffffffffffffffffffffffffffff16905085565b5f819050919050565b61053581610523565b82525050565b5f60208201905061054e5f83018461052c565b92915050565b5f80fd5b61056181610523565b811461056b575f80fd5b50565b5f8135905061057c81610558565b92915050565b5f73ffffffffffffffffffffffffffffffffffffffff82169050919050565b5f6105ab82610582565b9050919050565b6105bb816105a1565b81146105c5575f80fd5b50565b5f813590506105d6816105b2565b92915050565b5f805f606084860312156105f3576105f2610554565b5b5f6106008682870161056e565b93505060206106118682870161056e565b9250506040610622868287016105c8565b9150509250925092565b5f6020828403121561064157610640610554565b5b5f61064e8482850161056e565b91505092915050565b610660816105a1565b82525050565b5f60a0820190506106795f83018861052c565b610686602083018761052c565b610693604083018661052c565b6106a06060830185610657565b6106ad6080830184610657565b9695505050505050565b5f82825260208201905092915050565b7f5175616e74697479206d7573742062652067726561746572207468616e2030005f82015250565b5f6106fb601f836106b7565b9150610706826106c7565b602082019050919050565b5f6020820190508181035f830152610728816106ef565b9050919050565b5f8151905061073d81610558565b92915050565b5f6020828403121561075857610757610554565b5b5f6107658482850161072f565b91505092915050565b7f4e487b71000000000000000000000000000000000000000000000000000000005f52601160045260245ffd5b5f6107a582610523565b91506107b083610523565b92508282026107be81610523565b915082820484148315176107d5576107d461076e565b5b5092915050565b7f496e73756666696369656e742066756e647300000000000000000000000000005f82015250565b5f6108106012836106b7565b915061081b826107dc565b602082019050919050565b5f6020820190508181035f83015261083d81610804565b9050919050565b5f61084e82610523565b91507fffffffffffffffffffffffffffffffffffffffffffffffffffffffffffffffff82036108805761087f61076e565b5b600182019050919050565b5f60408201905061089e5f83018561052c565b6108ab602083018461052c565b9392505050565b5f819050919050565b5f6108c5826108b2565b91507f800000000000000000000000000000000000000000000000000000000000000082036108f7576108f661076e565b5b815f039050919050565b61090a816108b2565b82525050565b5f6040820190506109235f83018561052c565b6109306020830184610901565b939250505056fea2646970667358221220d05d450e36e379be695a270bebaca28cd73e64e07d475c9a7b072a0e8651282a64736f6c63430008150033",
  "immutableReferences": {},
  "source": "// SPDX-License-Identifier: MIT\r\npragma solidity ^0.8.0;\r\n\r\nimport \"./3_Products.sol\";\r\n\r\ncontract Orders {\r\n    Products private productsContract;\r\n\r\n    struct Order {\r\n        uint256 orderId;\r\n        uint256 productId;\r\n        uint256 quantity;\r\n        address buyer;\r\n        address seller;\r\n    }\r\n\r\n    mapping(uint256 => Order) public orders;\r\n    uint256 public orderCount;\r\n\r\n    event OrderPlaced(\r\n        uint256 orderId,\r\n        uint256 productId,\r\n        uint256 quantity,\r\n        address buyer,\r\n        address seller\r\n    );\r\n\r\n    constructor(address _productsContractAddress) {\r\n        productsContract = Products(_productsContractAddress);\r\n    }\r\n\r\n    function placeOrder(\r\n        uint256 _productId,\r\n        uint256 _quantity,\r\n        address _seller\r\n    ) external payable {\r\n        require(_quantity > 0, \"Quantity must be greater than 0\");\r\n        require(\r\n            msg.value ==\r\n                productsContract.getProductPrice(_productId) * _quantity,\r\n            \"Insufficient funds\"\r\n        );\r\n        orderCount++;\r\n        orders[orderCount] = Order(\r\n            orderCount,\r\n            _productId,\r\n            _quantity,\r\n            msg.sender,\r\n            _seller\r\n        );\r\n        productsContract.updateSoldProduction(_productId, _quantity);\r\n        productsContract.updateUnsoldProduction(_productId, -int256(_quantity));\r\n        payable(_seller).transfer(msg.value);\r\n        emit OrderPlaced(\r\n            orderCount,\r\n            _productId,\r\n            _quantity,\r\n            msg.sender,\r\n            _seller\r\n        );\r\n    }\r\n}\r\n",
  "sourcePath": "D:\\Freelance\\facroryreact\\factorymanagment\\src\\blockchain\\contracts\\6_Orders.sol",
  "compiler": {
    "name": "solc",
    "version": "0.8.21+commit.d9974bed.Emscripten.clang"
  },
  "schemaVersion": "3.4.16",
  "updatedAt": "2024-04-06T16:37:03.835Z",
  "networkType": "ethereum",
  "devdoc": {
    "kind": "dev",
    "methods": {},
    "version": 1
  },
  "userdoc": {
    "kind": "user",
    "methods": {},
    "version": 1
  }
}